{
	"contracts/campaign.sol": {
		"CampaignsData": {
			"abi": [
				{
					"anonymous": false,
					"inputs": [
						{
							"indexed": false,
							"internalType": "string",
							"name": "title",
							"type": "string"
						},
						{
							"indexed": false,
							"internalType": "uint256",
							"name": "requiredAmount",
							"type": "uint256"
						},
						{
							"indexed": true,
							"internalType": "address",
							"name": "owner",
							"type": "address"
						},
						{
							"indexed": false,
							"internalType": "address",
							"name": "campaignAddress",
							"type": "address"
						},
						{
							"indexed": false,
							"internalType": "string",
							"name": "Imageurl",
							"type": "string"
						},
						{
							"indexed": false,
							"internalType": "string",
							"name": "Storyurl",
							"type": "string"
						},
						{
							"indexed": true,
							"internalType": "uint256",
							"name": "timestamps",
							"type": "uint256"
						},
						{
							"indexed": true,
							"internalType": "string",
							"name": "categoryOfCampaign",
							"type": "string"
						}
					],
					"name": "campaignCreated",
					"type": "event"
				},
				{
					"inputs": [
						{
							"internalType": "string",
							"name": "campaignTitle",
							"type": "string"
						},
						{
							"internalType": "uint256",
							"name": "requiredCampaignAmount",
							"type": "uint256"
						},
						{
							"internalType": "string",
							"name": "ImageUrl",
							"type": "string"
						},
						{
							"internalType": "string",
							"name": "cateogory",
							"type": "string"
						},
						{
							"internalType": "string",
							"name": "storyUrl",
							"type": "string"
						}
					],
					"name": "CreateCampaign",
					"outputs": [],
					"stateMutability": "nonpayable",
					"type": "function"
				},
				{
					"inputs": [
						{
							"internalType": "uint256",
							"name": "",
							"type": "uint256"
						}
					],
					"name": "depolyedCapmaigns",
					"outputs": [
						{
							"internalType": "address",
							"name": "",
							"type": "address"
						}
					],
					"stateMutability": "view",
					"type": "function"
				}
			],
			"devdoc": {
				"kind": "dev",
				"methods": {},
				"version": 1
			},
			"evm": {
				"assembly": "    /* \"contracts/campaign.sol\":57:1270  contract CampaignsData {... */\n  mstore(0x40, 0x80)\n  callvalue\n  dup1\n  iszero\n  tag_1\n  jumpi\n  0x00\n  dup1\n  revert\ntag_1:\n  pop\n  dataSize(sub_0)\n  dup1\n  dataOffset(sub_0)\n  0x00\n  codecopy\n  0x00\n  return\nstop\n\nsub_0: assembly {\n        /* \"contracts/campaign.sol\":57:1270  contract CampaignsData {... */\n      mstore(0x40, 0x80)\n      callvalue\n      dup1\n      iszero\n      tag_1\n      jumpi\n      0x00\n      dup1\n      revert\n    tag_1:\n      pop\n      jumpi(tag_2, lt(calldatasize, 0x04))\n      shr(0xe0, calldataload(0x00))\n      dup1\n      0x25e1db4d\n      eq\n      tag_3\n      jumpi\n      dup1\n      0x30b99a25\n      eq\n      tag_4\n      jumpi\n    tag_2:\n      0x00\n      dup1\n      revert\n        /* \"contracts/campaign.sol\":86:120  address[] public depolyedCapmaigns */\n    tag_3:\n      tag_5\n      0x04\n      dup1\n      calldatasize\n      sub\n      dup2\n      add\n      swap1\n      tag_6\n      swap2\n      swap1\n      tag_7\n      jump\t// in\n    tag_6:\n      tag_8\n      jump\t// in\n    tag_5:\n      mload(0x40)\n      tag_9\n      swap2\n      swap1\n      tag_10\n      jump\t// in\n    tag_9:\n      mload(0x40)\n      dup1\n      swap2\n      sub\n      swap1\n      return\n        /* \"contracts/campaign.sol\":408:1268  function CreateCampaign(... */\n    tag_4:\n      tag_11\n      0x04\n      dup1\n      calldatasize\n      sub\n      dup2\n      add\n      swap1\n      tag_12\n      swap2\n      swap1\n      tag_13\n      jump\t// in\n    tag_12:\n      tag_14\n      jump\t// in\n    tag_11:\n      stop\n        /* \"contracts/campaign.sol\":86:120  address[] public depolyedCapmaigns */\n    tag_8:\n      0x00\n      dup2\n      dup2\n      sload\n      dup2\n      lt\n      tag_15\n      jumpi\n      0x00\n      dup1\n      revert\n    tag_15:\n      swap1\n      0x00\n      mstore\n      keccak256(0x00, 0x20)\n      add\n      0x00\n      swap2\n      pop\n      sload\n      swap1\n      0x0100\n      exp\n      swap1\n      div\n      0xffffffffffffffffffffffffffffffffffffffff\n      and\n      dup2\n      jump\t// out\n        /* \"contracts/campaign.sol\":408:1268  function CreateCampaign(... */\n    tag_14:\n        /* \"contracts/campaign.sol\":629:649  Campaign newCampaign */\n      0x00\n        /* \"contracts/campaign.sol\":802:815  campaignTitle */\n      dup6\n        /* \"contracts/campaign.sol\":829:851  requiredCampaignAmount */\n      dup6\n        /* \"contracts/campaign.sol\":865:873  ImageUrl */\n      dup6\n        /* \"contracts/campaign.sol\":887:895  storyUrl */\n      dup5\n        /* \"contracts/campaign.sol\":652:905  new Campaign(... */\n      mload(0x40)\n      tag_18\n      swap1\n      tag_19\n      jump\t// in\n    tag_18:\n      tag_20\n      swap5\n      swap4\n      swap3\n      swap2\n      swap1\n      tag_21\n      jump\t// in\n    tag_20:\n      mload(0x40)\n      dup1\n      swap2\n      sub\n      swap1\n      0x00\n      create\n      dup1\n      iszero\n      dup1\n      iszero\n      tag_22\n      jumpi\n      returndatasize\n      0x00\n      dup1\n      returndatacopy\n      revert(0x00, returndatasize)\n    tag_22:\n      pop\n        /* \"contracts/campaign.sol\":629:905  Campaign newCampaign = new Campaign(... */\n      swap1\n      pop\n        /* \"contracts/campaign.sol\":916:933  depolyedCapmaigns */\n      0x00\n        /* \"contracts/campaign.sol\":947:958  newCampaign */\n      dup2\n        /* \"contracts/campaign.sol\":916:960  depolyedCapmaigns.push(address(newCampaign)) */\n      swap1\n      dup1\n      0x01\n      dup2\n      sload\n      add\n      dup1\n      dup3\n      sstore\n      dup1\n      swap2\n      pop\n      pop\n      0x01\n      swap1\n      sub\n      swap1\n      0x00\n      mstore\n      keccak256(0x00, 0x20)\n      add\n      0x00\n      swap1\n      swap2\n      swap1\n      swap2\n      swap1\n      swap2\n      0x0100\n      exp\n      dup2\n      sload\n      dup2\n      0xffffffffffffffffffffffffffffffffffffffff\n      mul\n      not\n      and\n      swap1\n      dup4\n      0xffffffffffffffffffffffffffffffffffffffff\n      and\n      mul\n      or\n      swap1\n      sstore\n      pop\n        /* \"contracts/campaign.sol\":1242:1251  cateogory */\n      dup3\n        /* \"contracts/campaign.sol\":1019:1261  campaignCreated(... */\n      mload(0x40)\n      tag_24\n      swap2\n      swap1\n      tag_25\n      jump\t// in\n    tag_24:\n      mload(0x40)\n      dup1\n      swap2\n      sub\n      swap1\n      keccak256\n        /* \"contracts/campaign.sol\":1213:1228  block.timestamp */\n      timestamp\n        /* \"contracts/campaign.sol\":1111:1121  msg.sender */\n      caller\n        /* \"contracts/campaign.sol\":1019:1261  campaignCreated(... */\n      0xffffffffffffffffffffffffffffffffffffffff\n      and\n      0x8c19c3254560e386bca91176db8f76ece4d35af1afca17e1d77745d9e3f08101\n        /* \"contracts/campaign.sol\":1048:1061  campaignTitle */\n      dup10\n        /* \"contracts/campaign.sol\":1075:1097  requiredCampaignAmount */\n      dup10\n        /* \"contracts/campaign.sol\":1143:1154  newCampaign */\n      dup7\n        /* \"contracts/campaign.sol\":1169:1177  ImageUrl */\n      dup11\n        /* \"contracts/campaign.sol\":1191:1199  storyUrl */\n      dup10\n        /* \"contracts/campaign.sol\":1019:1261  campaignCreated(... */\n      mload(0x40)\n      tag_26\n      swap6\n      swap5\n      swap4\n      swap3\n      swap2\n      swap1\n      tag_27\n      jump\t// in\n    tag_26:\n      mload(0x40)\n      dup1\n      swap2\n      sub\n      swap1\n      log4\n        /* \"contracts/campaign.sol\":619:1268  {... */\n      pop\n        /* \"contracts/campaign.sol\":408:1268  function CreateCampaign(... */\n      pop\n      pop\n      pop\n      pop\n      pop\n      jump\t// out\n    tag_19:\n      dataSize(sub_0)\n      dup1\n      dataOffset(sub_0)\n      dup4\n      codecopy\n      add\n      swap1\n      jump\t// out\n        /* \"#utility.yul\":7:82   */\n    tag_28:\n        /* \"#utility.yul\":40:46   */\n      0x00\n        /* \"#utility.yul\":73:75   */\n      0x40\n        /* \"#utility.yul\":67:76   */\n      mload\n        /* \"#utility.yul\":57:76   */\n      swap1\n      pop\n        /* \"#utility.yul\":7:82   */\n      swap1\n      jump\t// out\n        /* \"#utility.yul\":88:205   */\n    tag_29:\n        /* \"#utility.yul\":197:198   */\n      0x00\n        /* \"#utility.yul\":194:195   */\n      dup1\n        /* \"#utility.yul\":187:199   */\n      revert\n        /* \"#utility.yul\":211:328   */\n    tag_30:\n        /* \"#utility.yul\":320:321   */\n      0x00\n        /* \"#utility.yul\":317:318   */\n      dup1\n        /* \"#utility.yul\":310:322   */\n      revert\n        /* \"#utility.yul\":334:411   */\n    tag_31:\n        /* \"#utility.yul\":371:378   */\n      0x00\n        /* \"#utility.yul\":400:405   */\n      dup2\n        /* \"#utility.yul\":389:405   */\n      swap1\n      pop\n        /* \"#utility.yul\":334:411   */\n      swap2\n      swap1\n      pop\n      jump\t// out\n        /* \"#utility.yul\":417:539   */\n    tag_32:\n        /* \"#utility.yul\":490:514   */\n      tag_60\n        /* \"#utility.yul\":508:513   */\n      dup2\n        /* \"#utility.yul\":490:514   */\n      tag_31\n      jump\t// in\n    tag_60:\n        /* \"#utility.yul\":483:488   */\n      dup2\n        /* \"#utility.yul\":480:515   */\n      eq\n        /* \"#utility.yul\":470:533   */\n      tag_61\n      jumpi\n        /* \"#utility.yul\":529:530   */\n      0x00\n        /* \"#utility.yul\":526:527   */\n      dup1\n        /* \"#utility.yul\":519:531   */\n      revert\n        /* \"#utility.yul\":470:533   */\n    tag_61:\n        /* \"#utility.yul\":417:539   */\n      pop\n      jump\t// out\n        /* \"#utility.yul\":545:684   */\n    tag_33:\n        /* \"#utility.yul\":591:596   */\n      0x00\n        /* \"#utility.yul\":629:635   */\n      dup2\n        /* \"#utility.yul\":616:636   */\n      calldataload\n        /* \"#utility.yul\":607:636   */\n      swap1\n      pop\n        /* \"#utility.yul\":645:678   */\n      tag_63\n        /* \"#utility.yul\":672:677   */\n      dup2\n        /* \"#utility.yul\":645:678   */\n      tag_32\n      jump\t// in\n    tag_63:\n        /* \"#utility.yul\":545:684   */\n      swap3\n      swap2\n      pop\n      pop\n      jump\t// out\n        /* \"#utility.yul\":690:1019   */\n    tag_7:\n        /* \"#utility.yul\":749:755   */\n      0x00\n        /* \"#utility.yul\":798:800   */\n      0x20\n        /* \"#utility.yul\":786:795   */\n      dup3\n        /* \"#utility.yul\":777:784   */\n      dup5\n        /* \"#utility.yul\":773:796   */\n      sub\n        /* \"#utility.yul\":769:801   */\n      slt\n        /* \"#utility.yul\":766:885   */\n      iszero\n      tag_65\n      jumpi\n        /* \"#utility.yul\":804:883   */\n      tag_66\n      tag_29\n      jump\t// in\n    tag_66:\n        /* \"#utility.yul\":766:885   */\n    tag_65:\n        /* \"#utility.yul\":924:925   */\n      0x00\n        /* \"#utility.yul\":949:1002   */\n      tag_67\n        /* \"#utility.yul\":994:1001   */\n      dup5\n        /* \"#utility.yul\":985:991   */\n      dup3\n        /* \"#utility.yul\":974:983   */\n      dup6\n        /* \"#utility.yul\":970:992   */\n      add\n        /* \"#utility.yul\":949:1002   */\n      tag_33\n      jump\t// in\n    tag_67:\n        /* \"#utility.yul\":939:1002   */\n      swap2\n      pop\n        /* \"#utility.yul\":895:1012   */\n      pop\n        /* \"#utility.yul\":690:1019   */\n      swap3\n      swap2\n      pop\n      pop\n      jump\t// out\n        /* \"#utility.yul\":1025:1151   */\n    tag_34:\n        /* \"#utility.yul\":1062:1069   */\n      0x00\n        /* \"#utility.yul\":1102:1144   */\n      0xffffffffffffffffffffffffffffffffffffffff\n        /* \"#utility.yul\":1095:1100   */\n      dup3\n        /* \"#utility.yul\":1091:1145   */\n      and\n        /* \"#utility.yul\":1080:1145   */\n      swap1\n      pop\n        /* \"#utility.yul\":1025:1151   */\n      swap2\n      swap1\n      pop\n      jump\t// out\n        /* \"#utility.yul\":1157:1253   */\n    tag_35:\n        /* \"#utility.yul\":1194:1201   */\n      0x00\n        /* \"#utility.yul\":1223:1247   */\n      tag_70\n        /* \"#utility.yul\":1241:1246   */\n      dup3\n        /* \"#utility.yul\":1223:1247   */\n      tag_34\n      jump\t// in\n    tag_70:\n        /* \"#utility.yul\":1212:1247   */\n      swap1\n      pop\n        /* \"#utility.yul\":1157:1253   */\n      swap2\n      swap1\n      pop\n      jump\t// out\n        /* \"#utility.yul\":1259:1377   */\n    tag_36:\n        /* \"#utility.yul\":1346:1370   */\n      tag_72\n        /* \"#utility.yul\":1364:1369   */\n      dup2\n        /* \"#utility.yul\":1346:1370   */\n      tag_35\n      jump\t// in\n    tag_72:\n        /* \"#utility.yul\":1341:1344   */\n      dup3\n        /* \"#utility.yul\":1334:1371   */\n      mstore\n        /* \"#utility.yul\":1259:1377   */\n      pop\n      pop\n      jump\t// out\n        /* \"#utility.yul\":1383:1605   */\n    tag_10:\n        /* \"#utility.yul\":1476:1480   */\n      0x00\n        /* \"#utility.yul\":1514:1516   */\n      0x20\n        /* \"#utility.yul\":1503:1512   */\n      dup3\n        /* \"#utility.yul\":1499:1517   */\n      add\n        /* \"#utility.yul\":1491:1517   */\n      swap1\n      pop\n        /* \"#utility.yul\":1527:1598   */\n      tag_74\n        /* \"#utility.yul\":1595:1596   */\n      0x00\n        /* \"#utility.yul\":1584:1593   */\n      dup4\n        /* \"#utility.yul\":1580:1597   */\n      add\n        /* \"#utility.yul\":1571:1577   */\n      dup5\n        /* \"#utility.yul\":1527:1598   */\n      tag_36\n      jump\t// in\n    tag_74:\n        /* \"#utility.yul\":1383:1605   */\n      swap3\n      swap2\n      pop\n      pop\n      jump\t// out\n        /* \"#utility.yul\":1611:1728   */\n    tag_37:\n        /* \"#utility.yul\":1720:1721   */\n      0x00\n        /* \"#utility.yul\":1717:1718   */\n      dup1\n        /* \"#utility.yul\":1710:1722   */\n      revert\n        /* \"#utility.yul\":1734:1851   */\n    tag_38:\n        /* \"#utility.yul\":1843:1844   */\n      0x00\n        /* \"#utility.yul\":1840:1841   */\n      dup1\n        /* \"#utility.yul\":1833:1845   */\n      revert\n        /* \"#utility.yul\":1857:1959   */\n    tag_39:\n        /* \"#utility.yul\":1898:1904   */\n      0x00\n        /* \"#utility.yul\":1949:1951   */\n      0x1f\n        /* \"#utility.yul\":1945:1952   */\n      not\n        /* \"#utility.yul\":1940:1942   */\n      0x1f\n        /* \"#utility.yul\":1933:1938   */\n      dup4\n        /* \"#utility.yul\":1929:1943   */\n      add\n        /* \"#utility.yul\":1925:1953   */\n      and\n        /* \"#utility.yul\":1915:1953   */\n      swap1\n      pop\n        /* \"#utility.yul\":1857:1959   */\n      swap2\n      swap1\n      pop\n      jump\t// out\n        /* \"#utility.yul\":1965:2145   */\n    tag_40:\n        /* \"#utility.yul\":2013:2090   */\n      0x4e487b7100000000000000000000000000000000000000000000000000000000\n        /* \"#utility.yul\":2010:2011   */\n      0x00\n        /* \"#utility.yul\":2003:2091   */\n      mstore\n        /* \"#utility.yul\":2110:2114   */\n      0x41\n        /* \"#utility.yul\":2107:2108   */\n      0x04\n        /* \"#utility.yul\":2100:2115   */\n      mstore\n        /* \"#utility.yul\":2134:2138   */\n      0x24\n        /* \"#utility.yul\":2131:2132   */\n      0x00\n        /* \"#utility.yul\":2124:2139   */\n      revert\n        /* \"#utility.yul\":2151:2432   */\n    tag_41:\n        /* \"#utility.yul\":2234:2261   */\n      tag_80\n        /* \"#utility.yul\":2256:2260   */\n      dup3\n        /* \"#utility.yul\":2234:2261   */\n      tag_39\n      jump\t// in\n    tag_80:\n        /* \"#utility.yul\":2226:2232   */\n      dup2\n        /* \"#utility.yul\":2222:2262   */\n      add\n        /* \"#utility.yul\":2364:2370   */\n      dup2\n        /* \"#utility.yul\":2352:2362   */\n      dup2\n        /* \"#utility.yul\":2349:2371   */\n      lt\n        /* \"#utility.yul\":2328:2346   */\n      0xffffffffffffffff\n        /* \"#utility.yul\":2316:2326   */\n      dup3\n        /* \"#utility.yul\":2313:2347   */\n      gt\n        /* \"#utility.yul\":2310:2372   */\n      or\n        /* \"#utility.yul\":2307:2395   */\n      iszero\n      tag_81\n      jumpi\n        /* \"#utility.yul\":2375:2393   */\n      tag_82\n      tag_40\n      jump\t// in\n    tag_82:\n        /* \"#utility.yul\":2307:2395   */\n    tag_81:\n        /* \"#utility.yul\":2415:2425   */\n      dup1\n        /* \"#utility.yul\":2411:2413   */\n      0x40\n        /* \"#utility.yul\":2404:2426   */\n      mstore\n        /* \"#utility.yul\":2194:2432   */\n      pop\n        /* \"#utility.yul\":2151:2432   */\n      pop\n      pop\n      jump\t// out\n        /* \"#utility.yul\":2438:2567   */\n    tag_42:\n        /* \"#utility.yul\":2472:2478   */\n      0x00\n        /* \"#utility.yul\":2499:2519   */\n      tag_84\n      tag_28\n      jump\t// in\n    tag_84:\n        /* \"#utility.yul\":2489:2519   */\n      swap1\n      pop\n        /* \"#utility.yul\":2528:2561   */\n      tag_85\n        /* \"#utility.yul\":2556:2560   */\n      dup3\n        /* \"#utility.yul\":2548:2554   */\n      dup3\n        /* \"#utility.yul\":2528:2561   */\n      tag_41\n      jump\t// in\n    tag_85:\n        /* \"#utility.yul\":2438:2567   */\n      swap2\n      swap1\n      pop\n      jump\t// out\n        /* \"#utility.yul\":2573:2881   */\n    tag_43:\n        /* \"#utility.yul\":2635:2639   */\n      0x00\n        /* \"#utility.yul\":2725:2743   */\n      0xffffffffffffffff\n        /* \"#utility.yul\":2717:2723   */\n      dup3\n        /* \"#utility.yul\":2714:2744   */\n      gt\n        /* \"#utility.yul\":2711:2767   */\n      iszero\n      tag_87\n      jumpi\n        /* \"#utility.yul\":2747:2765   */\n      tag_88\n      tag_40\n      jump\t// in\n    tag_88:\n        /* \"#utility.yul\":2711:2767   */\n    tag_87:\n        /* \"#utility.yul\":2785:2814   */\n      tag_89\n        /* \"#utility.yul\":2807:2813   */\n      dup3\n        /* \"#utility.yul\":2785:2814   */\n      tag_39\n      jump\t// in\n    tag_89:\n        /* \"#utility.yul\":2777:2814   */\n      swap1\n      pop\n        /* \"#utility.yul\":2869:2873   */\n      0x20\n        /* \"#utility.yul\":2863:2867   */\n      dup2\n        /* \"#utility.yul\":2859:2874   */\n      add\n        /* \"#utility.yul\":2851:2874   */\n      swap1\n      pop\n        /* \"#utility.yul\":2573:2881   */\n      swap2\n      swap1\n      pop\n      jump\t// out\n        /* \"#utility.yul\":2887:3035   */\n    tag_44:\n        /* \"#utility.yul\":2985:2991   */\n      dup3\n        /* \"#utility.yul\":2980:2983   */\n      dup2\n        /* \"#utility.yul\":2975:2978   */\n      dup4\n        /* \"#utility.yul\":2962:2992   */\n      calldatacopy\n        /* \"#utility.yul\":3026:3027   */\n      0x00\n        /* \"#utility.yul\":3017:3023   */\n      dup4\n        /* \"#utility.yul\":3012:3015   */\n      dup4\n        /* \"#utility.yul\":3008:3024   */\n      add\n        /* \"#utility.yul\":3001:3028   */\n      mstore\n        /* \"#utility.yul\":2887:3035   */\n      pop\n      pop\n      pop\n      jump\t// out\n        /* \"#utility.yul\":3041:3466   */\n    tag_45:\n        /* \"#utility.yul\":3119:3124   */\n      0x00\n        /* \"#utility.yul\":3144:3210   */\n      tag_92\n        /* \"#utility.yul\":3160:3209   */\n      tag_93\n        /* \"#utility.yul\":3202:3208   */\n      dup5\n        /* \"#utility.yul\":3160:3209   */\n      tag_43\n      jump\t// in\n    tag_93:\n        /* \"#utility.yul\":3144:3210   */\n      tag_42\n      jump\t// in\n    tag_92:\n        /* \"#utility.yul\":3135:3210   */\n      swap1\n      pop\n        /* \"#utility.yul\":3233:3239   */\n      dup3\n        /* \"#utility.yul\":3226:3231   */\n      dup2\n        /* \"#utility.yul\":3219:3240   */\n      mstore\n        /* \"#utility.yul\":3271:3275   */\n      0x20\n        /* \"#utility.yul\":3264:3269   */\n      dup2\n        /* \"#utility.yul\":3260:3276   */\n      add\n        /* \"#utility.yul\":3309:3312   */\n      dup5\n        /* \"#utility.yul\":3300:3306   */\n      dup5\n        /* \"#utility.yul\":3295:3298   */\n      dup5\n        /* \"#utility.yul\":3291:3307   */\n      add\n        /* \"#utility.yul\":3288:3313   */\n      gt\n        /* \"#utility.yul\":3285:3397   */\n      iszero\n      tag_94\n      jumpi\n        /* \"#utility.yul\":3316:3395   */\n      tag_95\n      tag_38\n      jump\t// in\n    tag_95:\n        /* \"#utility.yul\":3285:3397   */\n    tag_94:\n        /* \"#utility.yul\":3406:3460   */\n      tag_96\n        /* \"#utility.yul\":3453:3459   */\n      dup5\n        /* \"#utility.yul\":3448:3451   */\n      dup3\n        /* \"#utility.yul\":3443:3446   */\n      dup6\n        /* \"#utility.yul\":3406:3460   */\n      tag_44\n      jump\t// in\n    tag_96:\n        /* \"#utility.yul\":3125:3466   */\n      pop\n        /* \"#utility.yul\":3041:3466   */\n      swap4\n      swap3\n      pop\n      pop\n      pop\n      jump\t// out\n        /* \"#utility.yul\":3486:3826   */\n    tag_46:\n        /* \"#utility.yul\":3542:3547   */\n      0x00\n        /* \"#utility.yul\":3591:3594   */\n      dup3\n        /* \"#utility.yul\":3584:3588   */\n      0x1f\n        /* \"#utility.yul\":3576:3582   */\n      dup4\n        /* \"#utility.yul\":3572:3589   */\n      add\n        /* \"#utility.yul\":3568:3595   */\n      slt\n        /* \"#utility.yul\":3558:3680   */\n      tag_98\n      jumpi\n        /* \"#utility.yul\":3599:3678   */\n      tag_99\n      tag_37\n      jump\t// in\n    tag_99:\n        /* \"#utility.yul\":3558:3680   */\n    tag_98:\n        /* \"#utility.yul\":3716:3722   */\n      dup2\n        /* \"#utility.yul\":3703:3723   */\n      calldataload\n        /* \"#utility.yul\":3741:3820   */\n      tag_100\n        /* \"#utility.yul\":3816:3819   */\n      dup5\n        /* \"#utility.yul\":3808:3814   */\n      dup3\n        /* \"#utility.yul\":3801:3805   */\n      0x20\n        /* \"#utility.yul\":3793:3799   */\n      dup7\n        /* \"#utility.yul\":3789:3806   */\n      add\n        /* \"#utility.yul\":3741:3820   */\n      tag_45\n      jump\t// in\n    tag_100:\n        /* \"#utility.yul\":3732:3820   */\n      swap2\n      pop\n        /* \"#utility.yul\":3548:3826   */\n      pop\n        /* \"#utility.yul\":3486:3826   */\n      swap3\n      swap2\n      pop\n      pop\n      jump\t// out\n        /* \"#utility.yul\":3832:5463   */\n    tag_13:\n        /* \"#utility.yul\":3967:3973   */\n      0x00\n        /* \"#utility.yul\":3975:3981   */\n      dup1\n        /* \"#utility.yul\":3983:3989   */\n      0x00\n        /* \"#utility.yul\":3991:3997   */\n      dup1\n        /* \"#utility.yul\":3999:4005   */\n      0x00\n        /* \"#utility.yul\":4048:4051   */\n      0xa0\n        /* \"#utility.yul\":4036:4045   */\n      dup7\n        /* \"#utility.yul\":4027:4034   */\n      dup9\n        /* \"#utility.yul\":4023:4046   */\n      sub\n        /* \"#utility.yul\":4019:4052   */\n      slt\n        /* \"#utility.yul\":4016:4136   */\n      iszero\n      tag_102\n      jumpi\n        /* \"#utility.yul\":4055:4134   */\n      tag_103\n      tag_29\n      jump\t// in\n    tag_103:\n        /* \"#utility.yul\":4016:4136   */\n    tag_102:\n        /* \"#utility.yul\":4203:4204   */\n      0x00\n        /* \"#utility.yul\":4192:4201   */\n      dup7\n        /* \"#utility.yul\":4188:4205   */\n      add\n        /* \"#utility.yul\":4175:4206   */\n      calldataload\n        /* \"#utility.yul\":4233:4251   */\n      0xffffffffffffffff\n        /* \"#utility.yul\":4225:4231   */\n      dup2\n        /* \"#utility.yul\":4222:4252   */\n      gt\n        /* \"#utility.yul\":4219:4336   */\n      iszero\n      tag_104\n      jumpi\n        /* \"#utility.yul\":4255:4334   */\n      tag_105\n      tag_30\n      jump\t// in\n    tag_105:\n        /* \"#utility.yul\":4219:4336   */\n    tag_104:\n        /* \"#utility.yul\":4360:4423   */\n      tag_106\n        /* \"#utility.yul\":4415:4422   */\n      dup9\n        /* \"#utility.yul\":4406:4412   */\n      dup3\n        /* \"#utility.yul\":4395:4404   */\n      dup10\n        /* \"#utility.yul\":4391:4413   */\n      add\n        /* \"#utility.yul\":4360:4423   */\n      tag_46\n      jump\t// in\n    tag_106:\n        /* \"#utility.yul\":4350:4423   */\n      swap6\n      pop\n        /* \"#utility.yul\":4146:4433   */\n      pop\n        /* \"#utility.yul\":4472:4474   */\n      0x20\n        /* \"#utility.yul\":4498:4551   */\n      tag_107\n        /* \"#utility.yul\":4543:4550   */\n      dup9\n        /* \"#utility.yul\":4534:4540   */\n      dup3\n        /* \"#utility.yul\":4523:4532   */\n      dup10\n        /* \"#utility.yul\":4519:4541   */\n      add\n        /* \"#utility.yul\":4498:4551   */\n      tag_33\n      jump\t// in\n    tag_107:\n        /* \"#utility.yul\":4488:4551   */\n      swap5\n      pop\n        /* \"#utility.yul\":4443:4561   */\n      pop\n        /* \"#utility.yul\":4628:4630   */\n      0x40\n        /* \"#utility.yul\":4617:4626   */\n      dup7\n        /* \"#utility.yul\":4613:4631   */\n      add\n        /* \"#utility.yul\":4600:4632   */\n      calldataload\n        /* \"#utility.yul\":4659:4677   */\n      0xffffffffffffffff\n        /* \"#utility.yul\":4651:4657   */\n      dup2\n        /* \"#utility.yul\":4648:4678   */\n      gt\n        /* \"#utility.yul\":4645:4762   */\n      iszero\n      tag_108\n      jumpi\n        /* \"#utility.yul\":4681:4760   */\n      tag_109\n      tag_30\n      jump\t// in\n    tag_109:\n        /* \"#utility.yul\":4645:4762   */\n    tag_108:\n        /* \"#utility.yul\":4786:4849   */\n      tag_110\n        /* \"#utility.yul\":4841:4848   */\n      dup9\n        /* \"#utility.yul\":4832:4838   */\n      dup3\n        /* \"#utility.yul\":4821:4830   */\n      dup10\n        /* \"#utility.yul\":4817:4839   */\n      add\n        /* \"#utility.yul\":4786:4849   */\n      tag_46\n      jump\t// in\n    tag_110:\n        /* \"#utility.yul\":4776:4849   */\n      swap4\n      pop\n        /* \"#utility.yul\":4571:4859   */\n      pop\n        /* \"#utility.yul\":4926:4928   */\n      0x60\n        /* \"#utility.yul\":4915:4924   */\n      dup7\n        /* \"#utility.yul\":4911:4929   */\n      add\n        /* \"#utility.yul\":4898:4930   */\n      calldataload\n        /* \"#utility.yul\":4957:4975   */\n      0xffffffffffffffff\n        /* \"#utility.yul\":4949:4955   */\n      dup2\n        /* \"#utility.yul\":4946:4976   */\n      gt\n        /* \"#utility.yul\":4943:5060   */\n      iszero\n      tag_111\n      jumpi\n        /* \"#utility.yul\":4979:5058   */\n      tag_112\n      tag_30\n      jump\t// in\n    tag_112:\n        /* \"#utility.yul\":4943:5060   */\n    tag_111:\n        /* \"#utility.yul\":5084:5147   */\n      tag_113\n        /* \"#utility.yul\":5139:5146   */\n      dup9\n        /* \"#utility.yul\":5130:5136   */\n      dup3\n        /* \"#utility.yul\":5119:5128   */\n      dup10\n        /* \"#utility.yul\":5115:5137   */\n      add\n        /* \"#utility.yul\":5084:5147   */\n      tag_46\n      jump\t// in\n    tag_113:\n        /* \"#utility.yul\":5074:5147   */\n      swap3\n      pop\n        /* \"#utility.yul\":4869:5157   */\n      pop\n        /* \"#utility.yul\":5224:5227   */\n      0x80\n        /* \"#utility.yul\":5213:5222   */\n      dup7\n        /* \"#utility.yul\":5209:5228   */\n      add\n        /* \"#utility.yul\":5196:5229   */\n      calldataload\n        /* \"#utility.yul\":5256:5274   */\n      0xffffffffffffffff\n        /* \"#utility.yul\":5248:5254   */\n      dup2\n        /* \"#utility.yul\":5245:5275   */\n      gt\n        /* \"#utility.yul\":5242:5359   */\n      iszero\n      tag_114\n      jumpi\n        /* \"#utility.yul\":5278:5357   */\n      tag_115\n      tag_30\n      jump\t// in\n    tag_115:\n        /* \"#utility.yul\":5242:5359   */\n    tag_114:\n        /* \"#utility.yul\":5383:5446   */\n      tag_116\n        /* \"#utility.yul\":5438:5445   */\n      dup9\n        /* \"#utility.yul\":5429:5435   */\n      dup3\n        /* \"#utility.yul\":5418:5427   */\n      dup10\n        /* \"#utility.yul\":5414:5436   */\n      add\n        /* \"#utility.yul\":5383:5446   */\n      tag_46\n      jump\t// in\n    tag_116:\n        /* \"#utility.yul\":5373:5446   */\n      swap2\n      pop\n        /* \"#utility.yul\":5167:5456   */\n      pop\n        /* \"#utility.yul\":3832:5463   */\n      swap3\n      swap6\n      pop\n      swap3\n      swap6\n      swap1\n      swap4\n      pop\n      jump\t// out\n        /* \"#utility.yul\":5469:5568   */\n    tag_47:\n        /* \"#utility.yul\":5521:5527   */\n      0x00\n        /* \"#utility.yul\":5555:5560   */\n      dup2\n        /* \"#utility.yul\":5549:5561   */\n      mload\n        /* \"#utility.yul\":5539:5561   */\n      swap1\n      pop\n        /* \"#utility.yul\":5469:5568   */\n      swap2\n      swap1\n      pop\n      jump\t// out\n        /* \"#utility.yul\":5574:5743   */\n    tag_48:\n        /* \"#utility.yul\":5658:5669   */\n      0x00\n        /* \"#utility.yul\":5692:5698   */\n      dup3\n        /* \"#utility.yul\":5687:5690   */\n      dup3\n        /* \"#utility.yul\":5680:5699   */\n      mstore\n        /* \"#utility.yul\":5732:5736   */\n      0x20\n        /* \"#utility.yul\":5727:5730   */\n      dup3\n        /* \"#utility.yul\":5723:5737   */\n      add\n        /* \"#utility.yul\":5708:5737   */\n      swap1\n      pop\n        /* \"#utility.yul\":5574:5743   */\n      swap3\n      swap2\n      pop\n      pop\n      jump\t// out\n        /* \"#utility.yul\":5749:5888   */\n    tag_49:\n        /* \"#utility.yul\":5838:5844   */\n      dup3\n        /* \"#utility.yul\":5833:5836   */\n      dup2\n        /* \"#utility.yul\":5828:5831   */\n      dup4\n        /* \"#utility.yul\":5822:5845   */\n      mcopy\n        /* \"#utility.yul\":5879:5880   */\n      0x00\n        /* \"#utility.yul\":5870:5876   */\n      dup4\n        /* \"#utility.yul\":5865:5868   */\n      dup4\n        /* \"#utility.yul\":5861:5877   */\n      add\n        /* \"#utility.yul\":5854:5881   */\n      mstore\n        /* \"#utility.yul\":5749:5888   */\n      pop\n      pop\n      pop\n      jump\t// out\n        /* \"#utility.yul\":5894:6271   */\n    tag_50:\n        /* \"#utility.yul\":5982:5985   */\n      0x00\n        /* \"#utility.yul\":6010:6049   */\n      tag_121\n        /* \"#utility.yul\":6043:6048   */\n      dup3\n        /* \"#utility.yul\":6010:6049   */\n      tag_47\n      jump\t// in\n    tag_121:\n        /* \"#utility.yul\":6065:6136   */\n      tag_122\n        /* \"#utility.yul\":6129:6135   */\n      dup2\n        /* \"#utility.yul\":6124:6127   */\n      dup6\n        /* \"#utility.yul\":6065:6136   */\n      tag_48\n      jump\t// in\n    tag_122:\n        /* \"#utility.yul\":6058:6136   */\n      swap4\n      pop\n        /* \"#utility.yul\":6145:6210   */\n      tag_123\n        /* \"#utility.yul\":6203:6209   */\n      dup2\n        /* \"#utility.yul\":6198:6201   */\n      dup6\n        /* \"#utility.yul\":6191:6195   */\n      0x20\n        /* \"#utility.yul\":6184:6189   */\n      dup7\n        /* \"#utility.yul\":6180:6196   */\n      add\n        /* \"#utility.yul\":6145:6210   */\n      tag_49\n      jump\t// in\n    tag_123:\n        /* \"#utility.yul\":6235:6264   */\n      tag_124\n        /* \"#utility.yul\":6257:6263   */\n      dup2\n        /* \"#utility.yul\":6235:6264   */\n      tag_39\n      jump\t// in\n    tag_124:\n        /* \"#utility.yul\":6230:6233   */\n      dup5\n        /* \"#utility.yul\":6226:6265   */\n      add\n        /* \"#utility.yul\":6219:6265   */\n      swap2\n      pop\n        /* \"#utility.yul\":5986:6271   */\n      pop\n        /* \"#utility.yul\":5894:6271   */\n      swap3\n      swap2\n      pop\n      pop\n      jump\t// out\n        /* \"#utility.yul\":6277:6395   */\n    tag_51:\n        /* \"#utility.yul\":6364:6388   */\n      tag_126\n        /* \"#utility.yul\":6382:6387   */\n      dup2\n        /* \"#utility.yul\":6364:6388   */\n      tag_31\n      jump\t// in\n    tag_126:\n        /* \"#utility.yul\":6359:6362   */\n      dup3\n        /* \"#utility.yul\":6352:6389   */\n      mstore\n        /* \"#utility.yul\":6277:6395   */\n      pop\n      pop\n      jump\t// out\n        /* \"#utility.yul\":6401:7227   */\n    tag_21:\n        /* \"#utility.yul\":6638:6642   */\n      0x00\n        /* \"#utility.yul\":6676:6679   */\n      0x80\n        /* \"#utility.yul\":6665:6674   */\n      dup3\n        /* \"#utility.yul\":6661:6680   */\n      add\n        /* \"#utility.yul\":6653:6680   */\n      swap1\n      pop\n        /* \"#utility.yul\":6726:6735   */\n      dup2\n        /* \"#utility.yul\":6720:6724   */\n      dup2\n        /* \"#utility.yul\":6716:6736   */\n      sub\n        /* \"#utility.yul\":6712:6713   */\n      0x00\n        /* \"#utility.yul\":6701:6710   */\n      dup4\n        /* \"#utility.yul\":6697:6714   */\n      add\n        /* \"#utility.yul\":6690:6737   */\n      mstore\n        /* \"#utility.yul\":6754:6832   */\n      tag_128\n        /* \"#utility.yul\":6827:6831   */\n      dup2\n        /* \"#utility.yul\":6818:6824   */\n      dup8\n        /* \"#utility.yul\":6754:6832   */\n      tag_50\n      jump\t// in\n    tag_128:\n        /* \"#utility.yul\":6746:6832   */\n      swap1\n      pop\n        /* \"#utility.yul\":6842:6914   */\n      tag_129\n        /* \"#utility.yul\":6910:6912   */\n      0x20\n        /* \"#utility.yul\":6899:6908   */\n      dup4\n        /* \"#utility.yul\":6895:6913   */\n      add\n        /* \"#utility.yul\":6886:6892   */\n      dup7\n        /* \"#utility.yul\":6842:6914   */\n      tag_51\n      jump\t// in\n    tag_129:\n        /* \"#utility.yul\":6961:6970   */\n      dup2\n        /* \"#utility.yul\":6955:6959   */\n      dup2\n        /* \"#utility.yul\":6951:6971   */\n      sub\n        /* \"#utility.yul\":6946:6948   */\n      0x40\n        /* \"#utility.yul\":6935:6944   */\n      dup4\n        /* \"#utility.yul\":6931:6949   */\n      add\n        /* \"#utility.yul\":6924:6972   */\n      mstore\n        /* \"#utility.yul\":6989:7067   */\n      tag_130\n        /* \"#utility.yul\":7062:7066   */\n      dup2\n        /* \"#utility.yul\":7053:7059   */\n      dup6\n        /* \"#utility.yul\":6989:7067   */\n      tag_50\n      jump\t// in\n    tag_130:\n        /* \"#utility.yul\":6981:7067   */\n      swap1\n      pop\n        /* \"#utility.yul\":7114:7123   */\n      dup2\n        /* \"#utility.yul\":7108:7112   */\n      dup2\n        /* \"#utility.yul\":7104:7124   */\n      sub\n        /* \"#utility.yul\":7099:7101   */\n      0x60\n        /* \"#utility.yul\":7088:7097   */\n      dup4\n        /* \"#utility.yul\":7084:7102   */\n      add\n        /* \"#utility.yul\":7077:7125   */\n      mstore\n        /* \"#utility.yul\":7142:7220   */\n      tag_131\n        /* \"#utility.yul\":7215:7219   */\n      dup2\n        /* \"#utility.yul\":7206:7212   */\n      dup5\n        /* \"#utility.yul\":7142:7220   */\n      tag_50\n      jump\t// in\n    tag_131:\n        /* \"#utility.yul\":7134:7220   */\n      swap1\n      pop\n        /* \"#utility.yul\":6401:7227   */\n      swap6\n      swap5\n      pop\n      pop\n      pop\n      pop\n      pop\n      jump\t// out\n        /* \"#utility.yul\":7233:7381   */\n    tag_52:\n        /* \"#utility.yul\":7335:7346   */\n      0x00\n        /* \"#utility.yul\":7372:7375   */\n      dup2\n        /* \"#utility.yul\":7357:7375   */\n      swap1\n      pop\n        /* \"#utility.yul\":7233:7381   */\n      swap3\n      swap2\n      pop\n      pop\n      jump\t// out\n        /* \"#utility.yul\":7387:7777   */\n    tag_53:\n        /* \"#utility.yul\":7493:7496   */\n      0x00\n        /* \"#utility.yul\":7521:7560   */\n      tag_134\n        /* \"#utility.yul\":7554:7559   */\n      dup3\n        /* \"#utility.yul\":7521:7560   */\n      tag_47\n      jump\t// in\n    tag_134:\n        /* \"#utility.yul\":7576:7665   */\n      tag_135\n        /* \"#utility.yul\":7658:7664   */\n      dup2\n        /* \"#utility.yul\":7653:7656   */\n      dup6\n        /* \"#utility.yul\":7576:7665   */\n      tag_52\n      jump\t// in\n    tag_135:\n        /* \"#utility.yul\":7569:7665   */\n      swap4\n      pop\n        /* \"#utility.yul\":7674:7739   */\n      tag_136\n        /* \"#utility.yul\":7732:7738   */\n      dup2\n        /* \"#utility.yul\":7727:7730   */\n      dup6\n        /* \"#utility.yul\":7720:7724   */\n      0x20\n        /* \"#utility.yul\":7713:7718   */\n      dup7\n        /* \"#utility.yul\":7709:7725   */\n      add\n        /* \"#utility.yul\":7674:7739   */\n      tag_49\n      jump\t// in\n    tag_136:\n        /* \"#utility.yul\":7764:7770   */\n      dup1\n        /* \"#utility.yul\":7759:7762   */\n      dup5\n        /* \"#utility.yul\":7755:7771   */\n      add\n        /* \"#utility.yul\":7748:7771   */\n      swap2\n      pop\n        /* \"#utility.yul\":7497:7777   */\n      pop\n        /* \"#utility.yul\":7387:7777   */\n      swap3\n      swap2\n      pop\n      pop\n      jump\t// out\n        /* \"#utility.yul\":7783:8058   */\n    tag_25:\n        /* \"#utility.yul\":7915:7918   */\n      0x00\n        /* \"#utility.yul\":7937:8032   */\n      tag_138\n        /* \"#utility.yul\":8028:8031   */\n      dup3\n        /* \"#utility.yul\":8019:8025   */\n      dup5\n        /* \"#utility.yul\":7937:8032   */\n      tag_53\n      jump\t// in\n    tag_138:\n        /* \"#utility.yul\":7930:8032   */\n      swap2\n      pop\n        /* \"#utility.yul\":8049:8052   */\n      dup2\n        /* \"#utility.yul\":8042:8052   */\n      swap1\n      pop\n        /* \"#utility.yul\":7783:8058   */\n      swap3\n      swap2\n      pop\n      pop\n      jump\t// out\n        /* \"#utility.yul\":8064:9001   */\n    tag_27:\n        /* \"#utility.yul\":8329:8333   */\n      0x00\n        /* \"#utility.yul\":8367:8370   */\n      0xa0\n        /* \"#utility.yul\":8356:8365   */\n      dup3\n        /* \"#utility.yul\":8352:8371   */\n      add\n        /* \"#utility.yul\":8344:8371   */\n      swap1\n      pop\n        /* \"#utility.yul\":8417:8426   */\n      dup2\n        /* \"#utility.yul\":8411:8415   */\n      dup2\n        /* \"#utility.yul\":8407:8427   */\n      sub\n        /* \"#utility.yul\":8403:8404   */\n      0x00\n        /* \"#utility.yul\":8392:8401   */\n      dup4\n        /* \"#utility.yul\":8388:8405   */\n      add\n        /* \"#utility.yul\":8381:8428   */\n      mstore\n        /* \"#utility.yul\":8445:8523   */\n      tag_140\n        /* \"#utility.yul\":8518:8522   */\n      dup2\n        /* \"#utility.yul\":8509:8515   */\n      dup9\n        /* \"#utility.yul\":8445:8523   */\n      tag_50\n      jump\t// in\n    tag_140:\n        /* \"#utility.yul\":8437:8523   */\n      swap1\n      pop\n        /* \"#utility.yul\":8533:8605   */\n      tag_141\n        /* \"#utility.yul\":8601:8603   */\n      0x20\n        /* \"#utility.yul\":8590:8599   */\n      dup4\n        /* \"#utility.yul\":8586:8604   */\n      add\n        /* \"#utility.yul\":8577:8583   */\n      dup8\n        /* \"#utility.yul\":8533:8605   */\n      tag_51\n      jump\t// in\n    tag_141:\n        /* \"#utility.yul\":8615:8687   */\n      tag_142\n        /* \"#utility.yul\":8683:8685   */\n      0x40\n        /* \"#utility.yul\":8672:8681   */\n      dup4\n        /* \"#utility.yul\":8668:8686   */\n      add\n        /* \"#utility.yul\":8659:8665   */\n      dup7\n        /* \"#utility.yul\":8615:8687   */\n      tag_36\n      jump\t// in\n    tag_142:\n        /* \"#utility.yul\":8734:8743   */\n      dup2\n        /* \"#utility.yul\":8728:8732   */\n      dup2\n        /* \"#utility.yul\":8724:8744   */\n      sub\n        /* \"#utility.yul\":8719:8721   */\n      0x60\n        /* \"#utility.yul\":8708:8717   */\n      dup4\n        /* \"#utility.yul\":8704:8722   */\n      add\n        /* \"#utility.yul\":8697:8745   */\n      mstore\n        /* \"#utility.yul\":8762:8840   */\n      tag_143\n        /* \"#utility.yul\":8835:8839   */\n      dup2\n        /* \"#utility.yul\":8826:8832   */\n      dup6\n        /* \"#utility.yul\":8762:8840   */\n      tag_50\n      jump\t// in\n    tag_143:\n        /* \"#utility.yul\":8754:8840   */\n      swap1\n      pop\n        /* \"#utility.yul\":8888:8897   */\n      dup2\n        /* \"#utility.yul\":8882:8886   */\n      dup2\n        /* \"#utility.yul\":8878:8898   */\n      sub\n        /* \"#utility.yul\":8872:8875   */\n      0x80\n        /* \"#utility.yul\":8861:8870   */\n      dup4\n        /* \"#utility.yul\":8857:8876   */\n      add\n        /* \"#utility.yul\":8850:8899   */\n      mstore\n        /* \"#utility.yul\":8916:8994   */\n      tag_144\n        /* \"#utility.yul\":8989:8993   */\n      dup2\n        /* \"#utility.yul\":8980:8986   */\n      dup5\n        /* \"#utility.yul\":8916:8994   */\n      tag_50\n      jump\t// in\n    tag_144:\n        /* \"#utility.yul\":8908:8994   */\n      swap1\n      pop\n        /* \"#utility.yul\":8064:9001   */\n      swap7\n      swap6\n      pop\n      pop\n      pop\n      pop\n      pop\n      pop\n      jump\t// out\n    stop\n\n    sub_0: assembly {\n            /* \"contracts/campaign.sol\":1272:2454  contract Campaign {... */\n          mstore(0x40, 0x80)\n            /* \"contracts/campaign.sol\":1670:2017  constructor(... */\n          callvalue\n          dup1\n          iszero\n          tag_1\n          jumpi\n          0x00\n          dup1\n          revert\n        tag_1:\n          pop\n          mload(0x40)\n          sub(codesize, bytecodeSize)\n          dup1\n          bytecodeSize\n          dup4\n          codecopy\n          dup2\n          dup2\n          add\n          0x40\n          mstore\n          dup2\n          add\n          swap1\n          tag_2\n          swap2\n          swap1\n          tag_3\n          jump\t// in\n        tag_2:\n            /* \"contracts/campaign.sol\":1845:1851  _title */\n          dup4\n            /* \"contracts/campaign.sol\":1837:1842  title */\n          0x00\n            /* \"contracts/campaign.sol\":1837:1851  title = _title */\n          swap1\n          dup2\n          tag_6\n          swap2\n          swap1\n          tag_7\n          jump\t// in\n        tag_6:\n          pop\n            /* \"contracts/campaign.sol\":1883:1903  _AmountNeededforFund */\n          dup3\n            /* \"contracts/campaign.sol\":1861:1880  AmountNeededforFund */\n          0x01\n            /* \"contracts/campaign.sol\":1861:1903  AmountNeededforFund = _AmountNeededforFund */\n          dup2\n          swap1\n          sstore\n          pop\n            /* \"contracts/campaign.sol\":1921:1927  _image */\n          dup2\n            /* \"contracts/campaign.sol\":1913:1918  image */\n          0x03\n            /* \"contracts/campaign.sol\":1913:1927  image = _image */\n          swap1\n          dup2\n          tag_8\n          swap2\n          swap1\n          tag_7\n          jump\t// in\n        tag_8:\n          pop\n            /* \"contracts/campaign.sol\":1956:1973  _storyofFundCause */\n          dup1\n            /* \"contracts/campaign.sol\":1937:1953  storyofFundCause */\n          0x04\n            /* \"contracts/campaign.sol\":1937:1973  storyofFundCause = _storyofFundCause */\n          swap1\n          dup2\n          tag_9\n          swap2\n          swap1\n          tag_7\n          jump\t// in\n        tag_9:\n          pop\n            /* \"contracts/campaign.sol\":1999:2009  msg.sender */\n          caller\n            /* \"contracts/campaign.sol\":1983:1988  Owner */\n          0x05\n          0x00\n            /* \"contracts/campaign.sol\":1983:2010  Owner = payable(msg.sender) */\n          0x0100\n          exp\n          dup2\n          sload\n          dup2\n          0xffffffffffffffffffffffffffffffffffffffff\n          mul\n          not\n          and\n          swap1\n          dup4\n          0xffffffffffffffffffffffffffffffffffffffff\n          and\n          mul\n          or\n          swap1\n          sstore\n          pop\n            /* \"contracts/campaign.sol\":1670:2017  constructor(... */\n          pop\n          pop\n          pop\n          pop\n            /* \"contracts/campaign.sol\":1272:2454  contract Campaign {... */\n          jump(tag_10)\n            /* \"#utility.yul\":7:82   */\n        tag_11:\n            /* \"#utility.yul\":40:46   */\n          0x00\n            /* \"#utility.yul\":73:75   */\n          0x40\n            /* \"#utility.yul\":67:76   */\n          mload\n            /* \"#utility.yul\":57:76   */\n          swap1\n          pop\n            /* \"#utility.yul\":7:82   */\n          swap1\n          jump\t// out\n            /* \"#utility.yul\":88:205   */\n        tag_12:\n            /* \"#utility.yul\":197:198   */\n          0x00\n            /* \"#utility.yul\":194:195   */\n          dup1\n            /* \"#utility.yul\":187:199   */\n          revert\n            /* \"#utility.yul\":211:328   */\n        tag_13:\n            /* \"#utility.yul\":320:321   */\n          0x00\n            /* \"#utility.yul\":317:318   */\n          dup1\n            /* \"#utility.yul\":310:322   */\n          revert\n            /* \"#utility.yul\":334:451   */\n        tag_14:\n            /* \"#utility.yul\":443:444   */\n          0x00\n            /* \"#utility.yul\":440:441   */\n          dup1\n            /* \"#utility.yul\":433:445   */\n          revert\n            /* \"#utility.yul\":457:574   */\n        tag_15:\n            /* \"#utility.yul\":566:567   */\n          0x00\n            /* \"#utility.yul\":563:564   */\n          dup1\n            /* \"#utility.yul\":556:568   */\n          revert\n            /* \"#utility.yul\":580:682   */\n        tag_16:\n            /* \"#utility.yul\":621:627   */\n          0x00\n            /* \"#utility.yul\":672:674   */\n          0x1f\n            /* \"#utility.yul\":668:675   */\n          not\n            /* \"#utility.yul\":663:665   */\n          0x1f\n            /* \"#utility.yul\":656:661   */\n          dup4\n            /* \"#utility.yul\":652:666   */\n          add\n            /* \"#utility.yul\":648:676   */\n          and\n            /* \"#utility.yul\":638:676   */\n          swap1\n          pop\n            /* \"#utility.yul\":580:682   */\n          swap2\n          swap1\n          pop\n          jump\t// out\n            /* \"#utility.yul\":688:868   */\n        tag_17:\n            /* \"#utility.yul\":736:813   */\n          0x4e487b7100000000000000000000000000000000000000000000000000000000\n            /* \"#utility.yul\":733:734   */\n          0x00\n            /* \"#utility.yul\":726:814   */\n          mstore\n            /* \"#utility.yul\":833:837   */\n          0x41\n            /* \"#utility.yul\":830:831   */\n          0x04\n            /* \"#utility.yul\":823:838   */\n          mstore\n            /* \"#utility.yul\":857:861   */\n          0x24\n            /* \"#utility.yul\":854:855   */\n          0x00\n            /* \"#utility.yul\":847:862   */\n          revert\n            /* \"#utility.yul\":874:1155   */\n        tag_18:\n            /* \"#utility.yul\":957:984   */\n          tag_54\n            /* \"#utility.yul\":979:983   */\n          dup3\n            /* \"#utility.yul\":957:984   */\n          tag_16\n          jump\t// in\n        tag_54:\n            /* \"#utility.yul\":949:955   */\n          dup2\n            /* \"#utility.yul\":945:985   */\n          add\n            /* \"#utility.yul\":1087:1093   */\n          dup2\n            /* \"#utility.yul\":1075:1085   */\n          dup2\n            /* \"#utility.yul\":1072:1094   */\n          lt\n            /* \"#utility.yul\":1051:1069   */\n          0xffffffffffffffff\n            /* \"#utility.yul\":1039:1049   */\n          dup3\n            /* \"#utility.yul\":1036:1070   */\n          gt\n            /* \"#utility.yul\":1033:1095   */\n          or\n            /* \"#utility.yul\":1030:1118   */\n          iszero\n          tag_55\n          jumpi\n            /* \"#utility.yul\":1098:1116   */\n          tag_56\n          tag_17\n          jump\t// in\n        tag_56:\n            /* \"#utility.yul\":1030:1118   */\n        tag_55:\n            /* \"#utility.yul\":1138:1148   */\n          dup1\n            /* \"#utility.yul\":1134:1136   */\n          0x40\n            /* \"#utility.yul\":1127:1149   */\n          mstore\n            /* \"#utility.yul\":917:1155   */\n          pop\n            /* \"#utility.yul\":874:1155   */\n          pop\n          pop\n          jump\t// out\n            /* \"#utility.yul\":1161:1290   */\n        tag_19:\n            /* \"#utility.yul\":1195:1201   */\n          0x00\n            /* \"#utility.yul\":1222:1242   */\n          tag_58\n          tag_11\n          jump\t// in\n        tag_58:\n            /* \"#utility.yul\":1212:1242   */\n          swap1\n          pop\n            /* \"#utility.yul\":1251:1284   */\n          tag_59\n            /* \"#utility.yul\":1279:1283   */\n          dup3\n            /* \"#utility.yul\":1271:1277   */\n          dup3\n            /* \"#utility.yul\":1251:1284   */\n          tag_18\n          jump\t// in\n        tag_59:\n            /* \"#utility.yul\":1161:1290   */\n          swap2\n          swap1\n          pop\n          jump\t// out\n            /* \"#utility.yul\":1296:1604   */\n        tag_20:\n            /* \"#utility.yul\":1358:1362   */\n          0x00\n            /* \"#utility.yul\":1448:1466   */\n          0xffffffffffffffff\n            /* \"#utility.yul\":1440:1446   */\n          dup3\n            /* \"#utility.yul\":1437:1467   */\n          gt\n            /* \"#utility.yul\":1434:1490   */\n          iszero\n          tag_61\n          jumpi\n            /* \"#utility.yul\":1470:1488   */\n          tag_62\n          tag_17\n          jump\t// in\n        tag_62:\n            /* \"#utility.yul\":1434:1490   */\n        tag_61:\n            /* \"#utility.yul\":1508:1537   */\n          tag_63\n            /* \"#utility.yul\":1530:1536   */\n          dup3\n            /* \"#utility.yul\":1508:1537   */\n          tag_16\n          jump\t// in\n        tag_63:\n            /* \"#utility.yul\":1500:1537   */\n          swap1\n          pop\n            /* \"#utility.yul\":1592:1596   */\n          0x20\n            /* \"#utility.yul\":1586:1590   */\n          dup2\n            /* \"#utility.yul\":1582:1597   */\n          add\n            /* \"#utility.yul\":1574:1597   */\n          swap1\n          pop\n            /* \"#utility.yul\":1296:1604   */\n          swap2\n          swap1\n          pop\n          jump\t// out\n            /* \"#utility.yul\":1610:1749   */\n        tag_21:\n            /* \"#utility.yul\":1699:1705   */\n          dup3\n            /* \"#utility.yul\":1694:1697   */\n          dup2\n            /* \"#utility.yul\":1689:1692   */\n          dup4\n            /* \"#utility.yul\":1683:1706   */\n          mcopy\n            /* \"#utility.yul\":1740:1741   */\n          0x00\n            /* \"#utility.yul\":1731:1737   */\n          dup4\n            /* \"#utility.yul\":1726:1729   */\n          dup4\n            /* \"#utility.yul\":1722:1738   */\n          add\n            /* \"#utility.yul\":1715:1742   */\n          mstore\n            /* \"#utility.yul\":1610:1749   */\n          pop\n          pop\n          pop\n          jump\t// out\n            /* \"#utility.yul\":1755:2189   */\n        tag_22:\n            /* \"#utility.yul\":1844:1849   */\n          0x00\n            /* \"#utility.yul\":1869:1935   */\n          tag_66\n            /* \"#utility.yul\":1885:1934   */\n          tag_67\n            /* \"#utility.yul\":1927:1933   */\n          dup5\n            /* \"#utility.yul\":1885:1934   */\n          tag_20\n          jump\t// in\n        tag_67:\n            /* \"#utility.yul\":1869:1935   */\n          tag_19\n          jump\t// in\n        tag_66:\n            /* \"#utility.yul\":1860:1935   */\n          swap1\n          pop\n            /* \"#utility.yul\":1958:1964   */\n          dup3\n            /* \"#utility.yul\":1951:1956   */\n          dup2\n            /* \"#utility.yul\":1944:1965   */\n          mstore\n            /* \"#utility.yul\":1996:2000   */\n          0x20\n            /* \"#utility.yul\":1989:1994   */\n          dup2\n            /* \"#utility.yul\":1985:2001   */\n          add\n            /* \"#utility.yul\":2034:2037   */\n          dup5\n            /* \"#utility.yul\":2025:2031   */\n          dup5\n            /* \"#utility.yul\":2020:2023   */\n          dup5\n            /* \"#utility.yul\":2016:2032   */\n          add\n            /* \"#utility.yul\":2013:2038   */\n          gt\n            /* \"#utility.yul\":2010:2122   */\n          iszero\n          tag_68\n          jumpi\n            /* \"#utility.yul\":2041:2120   */\n          tag_69\n          tag_15\n          jump\t// in\n        tag_69:\n            /* \"#utility.yul\":2010:2122   */\n        tag_68:\n            /* \"#utility.yul\":2131:2183   */\n          tag_70\n            /* \"#utility.yul\":2176:2182   */\n          dup5\n            /* \"#utility.yul\":2171:2174   */\n          dup3\n            /* \"#utility.yul\":2166:2169   */\n          dup6\n            /* \"#utility.yul\":2131:2183   */\n          tag_21\n          jump\t// in\n        tag_70:\n            /* \"#utility.yul\":1850:2189   */\n          pop\n            /* \"#utility.yul\":1755:2189   */\n          swap4\n          swap3\n          pop\n          pop\n          pop\n          jump\t// out\n            /* \"#utility.yul\":2209:2564   */\n        tag_23:\n            /* \"#utility.yul\":2276:2281   */\n          0x00\n            /* \"#utility.yul\":2325:2328   */\n          dup3\n            /* \"#utility.yul\":2318:2322   */\n          0x1f\n            /* \"#utility.yul\":2310:2316   */\n          dup4\n            /* \"#utility.yul\":2306:2323   */\n          add\n            /* \"#utility.yul\":2302:2329   */\n          slt\n            /* \"#utility.yul\":2292:2414   */\n          tag_72\n          jumpi\n            /* \"#utility.yul\":2333:2412   */\n          tag_73\n          tag_14\n          jump\t// in\n        tag_73:\n            /* \"#utility.yul\":2292:2414   */\n        tag_72:\n            /* \"#utility.yul\":2443:2449   */\n          dup2\n            /* \"#utility.yul\":2437:2450   */\n          mload\n            /* \"#utility.yul\":2468:2558   */\n          tag_74\n            /* \"#utility.yul\":2554:2557   */\n          dup5\n            /* \"#utility.yul\":2546:2552   */\n          dup3\n            /* \"#utility.yul\":2539:2543   */\n          0x20\n            /* \"#utility.yul\":2531:2537   */\n          dup7\n            /* \"#utility.yul\":2527:2544   */\n          add\n            /* \"#utility.yul\":2468:2558   */\n          tag_22\n          jump\t// in\n        tag_74:\n            /* \"#utility.yul\":2459:2558   */\n          swap2\n          pop\n            /* \"#utility.yul\":2282:2564   */\n          pop\n            /* \"#utility.yul\":2209:2564   */\n          swap3\n          swap2\n          pop\n          pop\n          jump\t// out\n            /* \"#utility.yul\":2570:2647   */\n        tag_24:\n            /* \"#utility.yul\":2607:2614   */\n          0x00\n            /* \"#utility.yul\":2636:2641   */\n          dup2\n            /* \"#utility.yul\":2625:2641   */\n          swap1\n          pop\n            /* \"#utility.yul\":2570:2647   */\n          swap2\n          swap1\n          pop\n          jump\t// out\n            /* \"#utility.yul\":2653:2775   */\n        tag_25:\n            /* \"#utility.yul\":2726:2750   */\n          tag_77\n            /* \"#utility.yul\":2744:2749   */\n          dup2\n            /* \"#utility.yul\":2726:2750   */\n          tag_24\n          jump\t// in\n        tag_77:\n            /* \"#utility.yul\":2719:2724   */\n          dup2\n            /* \"#utility.yul\":2716:2751   */\n          eq\n            /* \"#utility.yul\":2706:2769   */\n          tag_78\n          jumpi\n            /* \"#utility.yul\":2765:2766   */\n          0x00\n            /* \"#utility.yul\":2762:2763   */\n          dup1\n            /* \"#utility.yul\":2755:2767   */\n          revert\n            /* \"#utility.yul\":2706:2769   */\n        tag_78:\n            /* \"#utility.yul\":2653:2775   */\n          pop\n          jump\t// out\n            /* \"#utility.yul\":2781:2924   */\n        tag_26:\n            /* \"#utility.yul\":2838:2843   */\n          0x00\n            /* \"#utility.yul\":2869:2875   */\n          dup2\n            /* \"#utility.yul\":2863:2876   */\n          mload\n            /* \"#utility.yul\":2854:2876   */\n          swap1\n          pop\n            /* \"#utility.yul\":2885:2918   */\n          tag_80\n            /* \"#utility.yul\":2912:2917   */\n          dup2\n            /* \"#utility.yul\":2885:2918   */\n          tag_25\n          jump\t// in\n        tag_80:\n            /* \"#utility.yul\":2781:2924   */\n          swap3\n          swap2\n          pop\n          pop\n          jump\t// out\n            /* \"#utility.yul\":2930:4269   */\n        tag_3:\n            /* \"#utility.yul\":3057:3063   */\n          0x00\n            /* \"#utility.yul\":3065:3071   */\n          dup1\n            /* \"#utility.yul\":3073:3079   */\n          0x00\n            /* \"#utility.yul\":3081:3087   */\n          dup1\n            /* \"#utility.yul\":3130:3133   */\n          0x80\n            /* \"#utility.yul\":3118:3127   */\n          dup6\n            /* \"#utility.yul\":3109:3116   */\n          dup8\n            /* \"#utility.yul\":3105:3128   */\n          sub\n            /* \"#utility.yul\":3101:3134   */\n          slt\n            /* \"#utility.yul\":3098:3218   */\n          iszero\n          tag_82\n          jumpi\n            /* \"#utility.yul\":3137:3216   */\n          tag_83\n          tag_12\n          jump\t// in\n        tag_83:\n            /* \"#utility.yul\":3098:3218   */\n        tag_82:\n            /* \"#utility.yul\":3278:3279   */\n          0x00\n            /* \"#utility.yul\":3267:3276   */\n          dup6\n            /* \"#utility.yul\":3263:3280   */\n          add\n            /* \"#utility.yul\":3257:3281   */\n          mload\n            /* \"#utility.yul\":3308:3326   */\n          0xffffffffffffffff\n            /* \"#utility.yul\":3300:3306   */\n          dup2\n            /* \"#utility.yul\":3297:3327   */\n          gt\n            /* \"#utility.yul\":3294:3411   */\n          iszero\n          tag_84\n          jumpi\n            /* \"#utility.yul\":3330:3409   */\n          tag_85\n          tag_13\n          jump\t// in\n        tag_85:\n            /* \"#utility.yul\":3294:3411   */\n        tag_84:\n            /* \"#utility.yul\":3435:3509   */\n          tag_86\n            /* \"#utility.yul\":3501:3508   */\n          dup8\n            /* \"#utility.yul\":3492:3498   */\n          dup3\n            /* \"#utility.yul\":3481:3490   */\n          dup9\n            /* \"#utility.yul\":3477:3499   */\n          add\n            /* \"#utility.yul\":3435:3509   */\n          tag_23\n          jump\t// in\n        tag_86:\n            /* \"#utility.yul\":3425:3509   */\n          swap5\n          pop\n            /* \"#utility.yul\":3228:3519   */\n          pop\n            /* \"#utility.yul\":3558:3560   */\n          0x20\n            /* \"#utility.yul\":3584:3648   */\n          tag_87\n            /* \"#utility.yul\":3640:3647   */\n          dup8\n            /* \"#utility.yul\":3631:3637   */\n          dup3\n            /* \"#utility.yul\":3620:3629   */\n          dup9\n            /* \"#utility.yul\":3616:3638   */\n          add\n            /* \"#utility.yul\":3584:3648   */\n          tag_26\n          jump\t// in\n        tag_87:\n            /* \"#utility.yul\":3574:3648   */\n          swap4\n          pop\n            /* \"#utility.yul\":3529:3658   */\n          pop\n            /* \"#utility.yul\":3718:3720   */\n          0x40\n            /* \"#utility.yul\":3707:3716   */\n          dup6\n            /* \"#utility.yul\":3703:3721   */\n          add\n            /* \"#utility.yul\":3697:3722   */\n          mload\n            /* \"#utility.yul\":3749:3767   */\n          0xffffffffffffffff\n            /* \"#utility.yul\":3741:3747   */\n          dup2\n            /* \"#utility.yul\":3738:3768   */\n          gt\n            /* \"#utility.yul\":3735:3852   */\n          iszero\n          tag_88\n          jumpi\n            /* \"#utility.yul\":3771:3850   */\n          tag_89\n          tag_13\n          jump\t// in\n        tag_89:\n            /* \"#utility.yul\":3735:3852   */\n        tag_88:\n            /* \"#utility.yul\":3876:3950   */\n          tag_90\n            /* \"#utility.yul\":3942:3949   */\n          dup8\n            /* \"#utility.yul\":3933:3939   */\n          dup3\n            /* \"#utility.yul\":3922:3931   */\n          dup9\n            /* \"#utility.yul\":3918:3940   */\n          add\n            /* \"#utility.yul\":3876:3950   */\n          tag_23\n          jump\t// in\n        tag_90:\n            /* \"#utility.yul\":3866:3950   */\n          swap3\n          pop\n            /* \"#utility.yul\":3668:3960   */\n          pop\n            /* \"#utility.yul\":4020:4022   */\n          0x60\n            /* \"#utility.yul\":4009:4018   */\n          dup6\n            /* \"#utility.yul\":4005:4023   */\n          add\n            /* \"#utility.yul\":3999:4024   */\n          mload\n            /* \"#utility.yul\":4051:4069   */\n          0xffffffffffffffff\n            /* \"#utility.yul\":4043:4049   */\n          dup2\n            /* \"#utility.yul\":4040:4070   */\n          gt\n            /* \"#utility.yul\":4037:4154   */\n          iszero\n          tag_91\n          jumpi\n            /* \"#utility.yul\":4073:4152   */\n          tag_92\n          tag_13\n          jump\t// in\n        tag_92:\n            /* \"#utility.yul\":4037:4154   */\n        tag_91:\n            /* \"#utility.yul\":4178:4252   */\n          tag_93\n            /* \"#utility.yul\":4244:4251   */\n          dup8\n            /* \"#utility.yul\":4235:4241   */\n          dup3\n            /* \"#utility.yul\":4224:4233   */\n          dup9\n            /* \"#utility.yul\":4220:4242   */\n          add\n            /* \"#utility.yul\":4178:4252   */\n          tag_23\n          jump\t// in\n        tag_93:\n            /* \"#utility.yul\":4168:4252   */\n          swap2\n          pop\n            /* \"#utility.yul\":3970:4262   */\n          pop\n            /* \"#utility.yul\":2930:4269   */\n          swap3\n          swap6\n          swap2\n          swap5\n          pop\n          swap3\n          pop\n          jump\t// out\n            /* \"#utility.yul\":4275:4374   */\n        tag_27:\n            /* \"#utility.yul\":4327:4333   */\n          0x00\n            /* \"#utility.yul\":4361:4366   */\n          dup2\n            /* \"#utility.yul\":4355:4367   */\n          mload\n            /* \"#utility.yul\":4345:4367   */\n          swap1\n          pop\n            /* \"#utility.yul\":4275:4374   */\n          swap2\n          swap1\n          pop\n          jump\t// out\n            /* \"#utility.yul\":4380:4560   */\n        tag_28:\n            /* \"#utility.yul\":4428:4505   */\n          0x4e487b7100000000000000000000000000000000000000000000000000000000\n            /* \"#utility.yul\":4425:4426   */\n          0x00\n            /* \"#utility.yul\":4418:4506   */\n          mstore\n            /* \"#utility.yul\":4525:4529   */\n          0x22\n            /* \"#utility.yul\":4522:4523   */\n          0x04\n            /* \"#utility.yul\":4515:4530   */\n          mstore\n            /* \"#utility.yul\":4549:4553   */\n          0x24\n            /* \"#utility.yul\":4546:4547   */\n          0x00\n            /* \"#utility.yul\":4539:4554   */\n          revert\n            /* \"#utility.yul\":4566:4886   */\n        tag_29:\n            /* \"#utility.yul\":4610:4616   */\n          0x00\n            /* \"#utility.yul\":4647:4648   */\n          0x02\n            /* \"#utility.yul\":4641:4645   */\n          dup3\n            /* \"#utility.yul\":4637:4649   */\n          div\n            /* \"#utility.yul\":4627:4649   */\n          swap1\n          pop\n            /* \"#utility.yul\":4694:4695   */\n          0x01\n            /* \"#utility.yul\":4688:4692   */\n          dup3\n            /* \"#utility.yul\":4684:4696   */\n          and\n            /* \"#utility.yul\":4715:4733   */\n          dup1\n            /* \"#utility.yul\":4705:4786   */\n          tag_97\n          jumpi\n            /* \"#utility.yul\":4771:4775   */\n          0x7f\n            /* \"#utility.yul\":4763:4769   */\n          dup3\n            /* \"#utility.yul\":4759:4776   */\n          and\n            /* \"#utility.yul\":4749:4776   */\n          swap2\n          pop\n            /* \"#utility.yul\":4705:4786   */\n        tag_97:\n            /* \"#utility.yul\":4833:4835   */\n          0x20\n            /* \"#utility.yul\":4825:4831   */\n          dup3\n            /* \"#utility.yul\":4822:4836   */\n          lt\n            /* \"#utility.yul\":4802:4820   */\n          dup2\n            /* \"#utility.yul\":4799:4837   */\n          sub\n            /* \"#utility.yul\":4796:4880   */\n          tag_98\n          jumpi\n            /* \"#utility.yul\":4852:4870   */\n          tag_99\n          tag_28\n          jump\t// in\n        tag_99:\n            /* \"#utility.yul\":4796:4880   */\n        tag_98:\n            /* \"#utility.yul\":4617:4886   */\n          pop\n            /* \"#utility.yul\":4566:4886   */\n          swap2\n          swap1\n          pop\n          jump\t// out\n            /* \"#utility.yul\":4892:5033   */\n        tag_30:\n            /* \"#utility.yul\":4941:4945   */\n          0x00\n            /* \"#utility.yul\":4964:4967   */\n          dup2\n            /* \"#utility.yul\":4956:4967   */\n          swap1\n          pop\n            /* \"#utility.yul\":4987:4990   */\n          dup2\n            /* \"#utility.yul\":4984:4985   */\n          0x00\n            /* \"#utility.yul\":4977:4991   */\n          mstore\n            /* \"#utility.yul\":5021:5025   */\n          0x20\n            /* \"#utility.yul\":5018:5019   */\n          0x00\n            /* \"#utility.yul\":5008:5026   */\n          keccak256\n            /* \"#utility.yul\":5000:5026   */\n          swap1\n          pop\n            /* \"#utility.yul\":4892:5033   */\n          swap2\n          swap1\n          pop\n          jump\t// out\n            /* \"#utility.yul\":5039:5132   */\n        tag_31:\n            /* \"#utility.yul\":5076:5082   */\n          0x00\n            /* \"#utility.yul\":5123:5125   */\n          0x20\n            /* \"#utility.yul\":5118:5120   */\n          0x1f\n            /* \"#utility.yul\":5111:5116   */\n          dup4\n            /* \"#utility.yul\":5107:5121   */\n          add\n            /* \"#utility.yul\":5103:5126   */\n          div\n            /* \"#utility.yul\":5093:5126   */\n          swap1\n          pop\n            /* \"#utility.yul\":5039:5132   */\n          swap2\n          swap1\n          pop\n          jump\t// out\n            /* \"#utility.yul\":5138:5245   */\n        tag_32:\n            /* \"#utility.yul\":5182:5190   */\n          0x00\n            /* \"#utility.yul\":5232:5237   */\n          dup3\n            /* \"#utility.yul\":5226:5230   */\n          dup3\n            /* \"#utility.yul\":5222:5238   */\n          shl\n            /* \"#utility.yul\":5201:5238   */\n          swap1\n          pop\n            /* \"#utility.yul\":5138:5245   */\n          swap3\n          swap2\n          pop\n          pop\n          jump\t// out\n            /* \"#utility.yul\":5251:5644   */\n        tag_33:\n            /* \"#utility.yul\":5320:5326   */\n          0x00\n            /* \"#utility.yul\":5370:5371   */\n          0x08\n            /* \"#utility.yul\":5358:5368   */\n          dup4\n            /* \"#utility.yul\":5354:5372   */\n          mul\n            /* \"#utility.yul\":5393:5490   */\n          tag_104\n            /* \"#utility.yul\":5423:5489   */\n          0xffffffffffffffffffffffffffffffffffffffffffffffffffffffffffffffff\n            /* \"#utility.yul\":5412:5421   */\n          dup3\n            /* \"#utility.yul\":5393:5490   */\n          tag_32\n          jump\t// in\n        tag_104:\n            /* \"#utility.yul\":5511:5550   */\n          tag_105\n            /* \"#utility.yul\":5541:5549   */\n          dup7\n            /* \"#utility.yul\":5530:5539   */\n          dup4\n            /* \"#utility.yul\":5511:5550   */\n          tag_32\n          jump\t// in\n        tag_105:\n            /* \"#utility.yul\":5499:5550   */\n          swap6\n          pop\n            /* \"#utility.yul\":5583:5587   */\n          dup1\n            /* \"#utility.yul\":5579:5588   */\n          not\n            /* \"#utility.yul\":5572:5577   */\n          dup5\n            /* \"#utility.yul\":5568:5589   */\n          and\n            /* \"#utility.yul\":5559:5589   */\n          swap4\n          pop\n            /* \"#utility.yul\":5632:5636   */\n          dup1\n            /* \"#utility.yul\":5622:5630   */\n          dup7\n            /* \"#utility.yul\":5618:5637   */\n          and\n            /* \"#utility.yul\":5611:5616   */\n          dup5\n            /* \"#utility.yul\":5608:5638   */\n          or\n            /* \"#utility.yul\":5598:5638   */\n          swap3\n          pop\n            /* \"#utility.yul\":5327:5644   */\n          pop\n          pop\n            /* \"#utility.yul\":5251:5644   */\n          swap4\n          swap3\n          pop\n          pop\n          pop\n          jump\t// out\n            /* \"#utility.yul\":5650:5710   */\n        tag_34:\n            /* \"#utility.yul\":5678:5681   */\n          0x00\n            /* \"#utility.yul\":5699:5704   */\n          dup2\n            /* \"#utility.yul\":5692:5704   */\n          swap1\n          pop\n            /* \"#utility.yul\":5650:5710   */\n          swap2\n          swap1\n          pop\n          jump\t// out\n            /* \"#utility.yul\":5716:5858   */\n        tag_35:\n            /* \"#utility.yul\":5766:5775   */\n          0x00\n            /* \"#utility.yul\":5799:5852   */\n          tag_108\n            /* \"#utility.yul\":5817:5851   */\n          tag_109\n            /* \"#utility.yul\":5826:5850   */\n          tag_110\n            /* \"#utility.yul\":5844:5849   */\n          dup5\n            /* \"#utility.yul\":5826:5850   */\n          tag_24\n          jump\t// in\n        tag_110:\n            /* \"#utility.yul\":5817:5851   */\n          tag_34\n          jump\t// in\n        tag_109:\n            /* \"#utility.yul\":5799:5852   */\n          tag_24\n          jump\t// in\n        tag_108:\n            /* \"#utility.yul\":5786:5852   */\n          swap1\n          pop\n            /* \"#utility.yul\":5716:5858   */\n          swap2\n          swap1\n          pop\n          jump\t// out\n            /* \"#utility.yul\":5864:5939   */\n        tag_36:\n            /* \"#utility.yul\":5907:5910   */\n          0x00\n            /* \"#utility.yul\":5928:5933   */\n          dup2\n            /* \"#utility.yul\":5921:5933   */\n          swap1\n          pop\n            /* \"#utility.yul\":5864:5939   */\n          swap2\n          swap1\n          pop\n          jump\t// out\n            /* \"#utility.yul\":5945:6214   */\n        tag_37:\n            /* \"#utility.yul\":6055:6094   */\n          tag_113\n            /* \"#utility.yul\":6086:6093   */\n          dup4\n            /* \"#utility.yul\":6055:6094   */\n          tag_35\n          jump\t// in\n        tag_113:\n            /* \"#utility.yul\":6116:6207   */\n          tag_114\n            /* \"#utility.yul\":6165:6206   */\n          tag_115\n            /* \"#utility.yul\":6189:6205   */\n          dup3\n            /* \"#utility.yul\":6165:6206   */\n          tag_36\n          jump\t// in\n        tag_115:\n            /* \"#utility.yul\":6157:6163   */\n          dup5\n            /* \"#utility.yul\":6150:6154   */\n          dup5\n            /* \"#utility.yul\":6144:6155   */\n          sload\n            /* \"#utility.yul\":6116:6207   */\n          tag_33\n          jump\t// in\n        tag_114:\n            /* \"#utility.yul\":6110:6114   */\n          dup3\n            /* \"#utility.yul\":6103:6208   */\n          sstore\n            /* \"#utility.yul\":6021:6214   */\n          pop\n            /* \"#utility.yul\":5945:6214   */\n          pop\n          pop\n          pop\n          jump\t// out\n            /* \"#utility.yul\":6220:6293   */\n        tag_38:\n            /* \"#utility.yul\":6265:6268   */\n          0x00\n            /* \"#utility.yul\":6220:6293   */\n          swap1\n          jump\t// out\n            /* \"#utility.yul\":6299:6488   */\n        tag_39:\n            /* \"#utility.yul\":6376:6408   */\n          tag_118\n          tag_38\n          jump\t// in\n        tag_118:\n            /* \"#utility.yul\":6417:6482   */\n          tag_119\n            /* \"#utility.yul\":6475:6481   */\n          dup2\n            /* \"#utility.yul\":6467:6473   */\n          dup5\n            /* \"#utility.yul\":6461:6465   */\n          dup5\n            /* \"#utility.yul\":6417:6482   */\n          tag_37\n          jump\t// in\n        tag_119:\n            /* \"#utility.yul\":6352:6488   */\n          pop\n            /* \"#utility.yul\":6299:6488   */\n          pop\n          pop\n          jump\t// out\n            /* \"#utility.yul\":6494:6680   */\n        tag_40:\n            /* \"#utility.yul\":6554:6674   */\n        tag_121:\n            /* \"#utility.yul\":6571:6574   */\n          dup2\n            /* \"#utility.yul\":6564:6569   */\n          dup2\n            /* \"#utility.yul\":6561:6575   */\n          lt\n            /* \"#utility.yul\":6554:6674   */\n          iszero\n          tag_123\n          jumpi\n            /* \"#utility.yul\":6625:6664   */\n          tag_124\n            /* \"#utility.yul\":6662:6663   */\n          0x00\n            /* \"#utility.yul\":6655:6660   */\n          dup3\n            /* \"#utility.yul\":6625:6664   */\n          tag_39\n          jump\t// in\n        tag_124:\n            /* \"#utility.yul\":6598:6599   */\n          0x01\n            /* \"#utility.yul\":6591:6596   */\n          dup2\n            /* \"#utility.yul\":6587:6600   */\n          add\n            /* \"#utility.yul\":6578:6600   */\n          swap1\n          pop\n            /* \"#utility.yul\":6554:6674   */\n          jump(tag_121)\n        tag_123:\n            /* \"#utility.yul\":6494:6680   */\n          pop\n          pop\n          jump\t// out\n            /* \"#utility.yul\":6686:7229   */\n        tag_41:\n            /* \"#utility.yul\":6787:6789   */\n          0x1f\n            /* \"#utility.yul\":6782:6785   */\n          dup3\n            /* \"#utility.yul\":6779:6790   */\n          gt\n            /* \"#utility.yul\":6776:7222   */\n          iszero\n          tag_126\n          jumpi\n            /* \"#utility.yul\":6821:6859   */\n          tag_127\n            /* \"#utility.yul\":6853:6858   */\n          dup2\n            /* \"#utility.yul\":6821:6859   */\n          tag_30\n          jump\t// in\n        tag_127:\n            /* \"#utility.yul\":6905:6934   */\n          tag_128\n            /* \"#utility.yul\":6923:6933   */\n          dup5\n            /* \"#utility.yul\":6905:6934   */\n          tag_31\n          jump\t// in\n        tag_128:\n            /* \"#utility.yul\":6895:6903   */\n          dup2\n            /* \"#utility.yul\":6891:6935   */\n          add\n            /* \"#utility.yul\":7088:7090   */\n          0x20\n            /* \"#utility.yul\":7076:7086   */\n          dup6\n            /* \"#utility.yul\":7073:7091   */\n          lt\n            /* \"#utility.yul\":7070:7119   */\n          iszero\n          tag_129\n          jumpi\n            /* \"#utility.yul\":7109:7117   */\n          dup2\n            /* \"#utility.yul\":7094:7117   */\n          swap1\n          pop\n            /* \"#utility.yul\":7070:7119   */\n        tag_129:\n            /* \"#utility.yul\":7132:7212   */\n          tag_130\n            /* \"#utility.yul\":7188:7210   */\n          tag_131\n            /* \"#utility.yul\":7206:7209   */\n          dup6\n            /* \"#utility.yul\":7188:7210   */\n          tag_31\n          jump\t// in\n        tag_131:\n            /* \"#utility.yul\":7178:7186   */\n          dup4\n            /* \"#utility.yul\":7174:7211   */\n          add\n            /* \"#utility.yul\":7161:7172   */\n          dup3\n            /* \"#utility.yul\":7132:7212   */\n          tag_40\n          jump\t// in\n        tag_130:\n            /* \"#utility.yul\":6791:7222   */\n          pop\n          pop\n            /* \"#utility.yul\":6776:7222   */\n        tag_126:\n            /* \"#utility.yul\":6686:7229   */\n          pop\n          pop\n          pop\n          jump\t// out\n            /* \"#utility.yul\":7235:7352   */\n        tag_42:\n            /* \"#utility.yul\":7289:7297   */\n          0x00\n            /* \"#utility.yul\":7339:7344   */\n          dup3\n            /* \"#utility.yul\":7333:7337   */\n          dup3\n            /* \"#utility.yul\":7329:7345   */\n          shr\n            /* \"#utility.yul\":7308:7345   */\n          swap1\n          pop\n            /* \"#utility.yul\":7235:7352   */\n          swap3\n          swap2\n          pop\n          pop\n          jump\t// out\n            /* \"#utility.yul\":7358:7527   */\n        tag_43:\n            /* \"#utility.yul\":7402:7408   */\n          0x00\n            /* \"#utility.yul\":7435:7486   */\n          tag_134\n            /* \"#utility.yul\":7483:7484   */\n          0x00\n            /* \"#utility.yul\":7479:7485   */\n          not\n            /* \"#utility.yul\":7471:7476   */\n          dup5\n            /* \"#utility.yul\":7468:7469   */\n          0x08\n            /* \"#utility.yul\":7464:7477   */\n          mul\n            /* \"#utility.yul\":7435:7486   */\n          tag_42\n          jump\t// in\n        tag_134:\n            /* \"#utility.yul\":7431:7487   */\n          not\n            /* \"#utility.yul\":7516:7520   */\n          dup1\n            /* \"#utility.yul\":7510:7514   */\n          dup4\n            /* \"#utility.yul\":7506:7521   */\n          and\n            /* \"#utility.yul\":7496:7521   */\n          swap2\n          pop\n            /* \"#utility.yul\":7409:7527   */\n          pop\n            /* \"#utility.yul\":7358:7527   */\n          swap3\n          swap2\n          pop\n          pop\n          jump\t// out\n            /* \"#utility.yul\":7532:7827   */\n        tag_44:\n            /* \"#utility.yul\":7608:7612   */\n          0x00\n            /* \"#utility.yul\":7754:7783   */\n          tag_136\n            /* \"#utility.yul\":7779:7782   */\n          dup4\n            /* \"#utility.yul\":7773:7777   */\n          dup4\n            /* \"#utility.yul\":7754:7783   */\n          tag_43\n          jump\t// in\n        tag_136:\n            /* \"#utility.yul\":7746:7783   */\n          swap2\n          pop\n            /* \"#utility.yul\":7816:7819   */\n          dup3\n            /* \"#utility.yul\":7813:7814   */\n          0x02\n            /* \"#utility.yul\":7809:7820   */\n          mul\n            /* \"#utility.yul\":7803:7807   */\n          dup3\n            /* \"#utility.yul\":7800:7821   */\n          or\n            /* \"#utility.yul\":7792:7821   */\n          swap1\n          pop\n            /* \"#utility.yul\":7532:7827   */\n          swap3\n          swap2\n          pop\n          pop\n          jump\t// out\n            /* \"#utility.yul\":7832:9227   */\n        tag_7:\n            /* \"#utility.yul\":7949:7986   */\n          tag_138\n            /* \"#utility.yul\":7982:7985   */\n          dup3\n            /* \"#utility.yul\":7949:7986   */\n          tag_27\n          jump\t// in\n        tag_138:\n            /* \"#utility.yul\":8051:8069   */\n          0xffffffffffffffff\n            /* \"#utility.yul\":8043:8049   */\n          dup2\n            /* \"#utility.yul\":8040:8070   */\n          gt\n            /* \"#utility.yul\":8037:8093   */\n          iszero\n          tag_139\n          jumpi\n            /* \"#utility.yul\":8073:8091   */\n          tag_140\n          tag_17\n          jump\t// in\n        tag_140:\n            /* \"#utility.yul\":8037:8093   */\n        tag_139:\n            /* \"#utility.yul\":8117:8155   */\n          tag_141\n            /* \"#utility.yul\":8149:8153   */\n          dup3\n            /* \"#utility.yul\":8143:8154   */\n          sload\n            /* \"#utility.yul\":8117:8155   */\n          tag_29\n          jump\t// in\n        tag_141:\n            /* \"#utility.yul\":8202:8269   */\n          tag_142\n            /* \"#utility.yul\":8262:8268   */\n          dup3\n            /* \"#utility.yul\":8254:8260   */\n          dup3\n            /* \"#utility.yul\":8248:8252   */\n          dup6\n            /* \"#utility.yul\":8202:8269   */\n          tag_41\n          jump\t// in\n        tag_142:\n            /* \"#utility.yul\":8296:8297   */\n          0x00\n            /* \"#utility.yul\":8320:8324   */\n          0x20\n            /* \"#utility.yul\":8307:8324   */\n          swap1\n          pop\n            /* \"#utility.yul\":8352:8354   */\n          0x1f\n            /* \"#utility.yul\":8344:8350   */\n          dup4\n            /* \"#utility.yul\":8341:8355   */\n          gt\n            /* \"#utility.yul\":8369:8370   */\n          0x01\n            /* \"#utility.yul\":8364:8982   */\n          dup2\n          eq\n          tag_144\n          jumpi\n            /* \"#utility.yul\":9026:9027   */\n          0x00\n            /* \"#utility.yul\":9043:9049   */\n          dup5\n            /* \"#utility.yul\":9040:9117   */\n          iszero\n          tag_145\n          jumpi\n            /* \"#utility.yul\":9092:9101   */\n          dup3\n            /* \"#utility.yul\":9087:9090   */\n          dup8\n            /* \"#utility.yul\":9083:9102   */\n          add\n            /* \"#utility.yul\":9077:9103   */\n          mload\n            /* \"#utility.yul\":9068:9103   */\n          swap1\n          pop\n            /* \"#utility.yul\":9040:9117   */\n        tag_145:\n            /* \"#utility.yul\":9143:9210   */\n          tag_146\n            /* \"#utility.yul\":9203:9209   */\n          dup6\n            /* \"#utility.yul\":9196:9201   */\n          dup3\n            /* \"#utility.yul\":9143:9210   */\n          tag_44\n          jump\t// in\n        tag_146:\n            /* \"#utility.yul\":9137:9141   */\n          dup7\n            /* \"#utility.yul\":9130:9211   */\n          sstore\n            /* \"#utility.yul\":8999:9221   */\n          pop\n            /* \"#utility.yul\":8334:9221   */\n          jump(tag_143)\n            /* \"#utility.yul\":8364:8982   */\n        tag_144:\n            /* \"#utility.yul\":8416:8420   */\n          0x1f\n            /* \"#utility.yul\":8412:8421   */\n          not\n            /* \"#utility.yul\":8404:8410   */\n          dup5\n            /* \"#utility.yul\":8400:8422   */\n          and\n            /* \"#utility.yul\":8450:8487   */\n          tag_147\n            /* \"#utility.yul\":8482:8486   */\n          dup7\n            /* \"#utility.yul\":8450:8487   */\n          tag_30\n          jump\t// in\n        tag_147:\n            /* \"#utility.yul\":8509:8510   */\n          0x00\n            /* \"#utility.yul\":8523:8731   */\n        tag_148:\n            /* \"#utility.yul\":8537:8544   */\n          dup3\n            /* \"#utility.yul\":8534:8535   */\n          dup2\n            /* \"#utility.yul\":8531:8545   */\n          lt\n            /* \"#utility.yul\":8523:8731   */\n          iszero\n          tag_150\n          jumpi\n            /* \"#utility.yul\":8616:8625   */\n          dup5\n            /* \"#utility.yul\":8611:8614   */\n          dup10\n            /* \"#utility.yul\":8607:8626   */\n          add\n            /* \"#utility.yul\":8601:8627   */\n          mload\n            /* \"#utility.yul\":8593:8599   */\n          dup3\n            /* \"#utility.yul\":8586:8628   */\n          sstore\n            /* \"#utility.yul\":8667:8668   */\n          0x01\n            /* \"#utility.yul\":8659:8665   */\n          dup3\n            /* \"#utility.yul\":8655:8669   */\n          add\n            /* \"#utility.yul\":8645:8669   */\n          swap2\n          pop\n            /* \"#utility.yul\":8714:8716   */\n          0x20\n            /* \"#utility.yul\":8703:8712   */\n          dup6\n            /* \"#utility.yul\":8699:8717   */\n          add\n            /* \"#utility.yul\":8686:8717   */\n          swap5\n          pop\n            /* \"#utility.yul\":8560:8564   */\n          0x20\n            /* \"#utility.yul\":8557:8558   */\n          dup2\n            /* \"#utility.yul\":8553:8565   */\n          add\n            /* \"#utility.yul\":8548:8565   */\n          swap1\n          pop\n            /* \"#utility.yul\":8523:8731   */\n          jump(tag_148)\n        tag_150:\n            /* \"#utility.yul\":8759:8765   */\n          dup7\n            /* \"#utility.yul\":8750:8757   */\n          dup4\n            /* \"#utility.yul\":8747:8766   */\n          lt\n            /* \"#utility.yul\":8744:8923   */\n          iszero\n          tag_151\n          jumpi\n            /* \"#utility.yul\":8817:8826   */\n          dup5\n            /* \"#utility.yul\":8812:8815   */\n          dup10\n            /* \"#utility.yul\":8808:8827   */\n          add\n            /* \"#utility.yul\":8802:8828   */\n          mload\n            /* \"#utility.yul\":8860:8908   */\n          tag_152\n            /* \"#utility.yul\":8902:8906   */\n          0x1f\n            /* \"#utility.yul\":8894:8900   */\n          dup10\n            /* \"#utility.yul\":8890:8907   */\n          and\n            /* \"#utility.yul\":8879:8888   */\n          dup3\n            /* \"#utility.yul\":8860:8908   */\n          tag_43\n          jump\t// in\n        tag_152:\n            /* \"#utility.yul\":8852:8858   */\n          dup4\n            /* \"#utility.yul\":8845:8909   */\n          sstore\n            /* \"#utility.yul\":8767:8923   */\n          pop\n            /* \"#utility.yul\":8744:8923   */\n        tag_151:\n            /* \"#utility.yul\":8969:8970   */\n          0x01\n            /* \"#utility.yul\":8965:8966   */\n          0x02\n            /* \"#utility.yul\":8957:8963   */\n          dup9\n            /* \"#utility.yul\":8953:8967   */\n          mul\n            /* \"#utility.yul\":8949:8971   */\n          add\n            /* \"#utility.yul\":8943:8947   */\n          dup9\n            /* \"#utility.yul\":8936:8972   */\n          sstore\n            /* \"#utility.yul\":8371:8982   */\n          pop\n          pop\n          pop\n            /* \"#utility.yul\":8334:9221   */\n        tag_143:\n          pop\n            /* \"#utility.yul\":7924:9227   */\n          pop\n          pop\n          pop\n            /* \"#utility.yul\":7832:9227   */\n          pop\n          pop\n          jump\t// out\n            /* \"contracts/campaign.sol\":1272:2454  contract Campaign {... */\n        tag_10:\n          dataSize(sub_0)\n          dup1\n          dataOffset(sub_0)\n          0x00\n          codecopy\n          0x00\n          return\n        stop\n\n        sub_0: assembly {\n                /* \"contracts/campaign.sol\":1272:2454  contract Campaign {... */\n              mstore(0x40, 0x80)\n              jumpi(tag_1, lt(calldatasize, 0x04))\n              shr(0xe0, calldataload(0x00))\n              dup1\n              0xb4a99a4e\n              gt\n              tag_9\n              jumpi\n              dup1\n              0xb4a99a4e\n              eq\n              tag_5\n              jumpi\n              dup1\n              0xb529ef96\n              eq\n              tag_6\n              jumpi\n              dup1\n              0xcdff42bf\n              eq\n              tag_7\n              jumpi\n              dup1\n              0xf3ccaac0\n              eq\n              tag_8\n              jumpi\n              jump(tag_1)\n            tag_9:\n              dup1\n              0x4a79d50c\n              eq\n              tag_2\n              jumpi\n              dup1\n              0x965044d5\n              eq\n              tag_3\n              jumpi\n              dup1\n              0x9d7afdf3\n              eq\n              tag_4\n              jumpi\n            tag_1:\n              0x00\n              dup1\n              revert\n                /* \"contracts/campaign.sol\":1328:1347  string public title */\n            tag_2:\n              callvalue\n              dup1\n              iszero\n              tag_10\n              jumpi\n              0x00\n              dup1\n              revert\n            tag_10:\n              pop\n              tag_11\n              tag_12\n              jump\t// in\n            tag_11:\n              mload(0x40)\n              tag_13\n              swap2\n              swap1\n              tag_14\n              jump\t// in\n            tag_13:\n              mload(0x40)\n              dup1\n              swap2\n              sub\n              swap1\n              return\n                /* \"contracts/campaign.sol\":2199:2452  function donateAmount() public payable CheckAmount {... */\n            tag_3:\n              tag_15\n              tag_16\n              jump\t// in\n            tag_15:\n              stop\n                /* \"contracts/campaign.sol\":1459:1489  string public storyofFundCause */\n            tag_4:\n              callvalue\n              dup1\n              iszero\n              tag_17\n              jumpi\n              0x00\n              dup1\n              revert\n            tag_17:\n              pop\n              tag_18\n              tag_19\n              jump\t// in\n            tag_18:\n              mload(0x40)\n              tag_20\n              swap2\n              swap1\n              tag_14\n              jump\t// in\n            tag_20:\n              mload(0x40)\n              dup1\n              swap2\n              sub\n              swap1\n              return\n                /* \"contracts/campaign.sol\":1495:1523  address payable public Owner */\n            tag_5:\n              callvalue\n              dup1\n              iszero\n              tag_21\n              jumpi\n              0x00\n              dup1\n              revert\n            tag_21:\n              pop\n              tag_22\n              tag_23\n              jump\t// in\n            tag_22:\n              mload(0x40)\n              tag_24\n              swap2\n              swap1\n              tag_25\n              jump\t// in\n            tag_24:\n              mload(0x40)\n              dup1\n              swap2\n              sub\n              swap1\n              return\n                /* \"contracts/campaign.sol\":1353:1387  uint256 public AmountNeededforFund */\n            tag_6:\n              callvalue\n              dup1\n              iszero\n              tag_26\n              jumpi\n              0x00\n              dup1\n              revert\n            tag_26:\n              pop\n              tag_27\n              tag_28\n              jump\t// in\n            tag_27:\n              mload(0x40)\n              tag_29\n              swap2\n              swap1\n              tag_30\n              jump\t// in\n            tag_29:\n              mload(0x40)\n              dup1\n              swap2\n              sub\n              swap1\n              return\n                /* \"contracts/campaign.sol\":1393:1428  uint256 public AmountRecivedforFund */\n            tag_7:\n              callvalue\n              dup1\n              iszero\n              tag_31\n              jumpi\n              0x00\n              dup1\n              revert\n            tag_31:\n              pop\n              tag_32\n              tag_33\n              jump\t// in\n            tag_32:\n              mload(0x40)\n              tag_34\n              swap2\n              swap1\n              tag_30\n              jump\t// in\n            tag_34:\n              mload(0x40)\n              dup1\n              swap2\n              sub\n              swap1\n              return\n                /* \"contracts/campaign.sol\":1434:1453  string public image */\n            tag_8:\n              callvalue\n              dup1\n              iszero\n              tag_35\n              jumpi\n              0x00\n              dup1\n              revert\n            tag_35:\n              pop\n              tag_36\n              tag_37\n              jump\t// in\n            tag_36:\n              mload(0x40)\n              tag_38\n              swap2\n              swap1\n              tag_14\n              jump\t// in\n            tag_38:\n              mload(0x40)\n              dup1\n              swap2\n              sub\n              swap1\n              return\n                /* \"contracts/campaign.sol\":1328:1347  string public title */\n            tag_12:\n              0x00\n              dup1\n              sload\n              tag_39\n              swap1\n              tag_40\n              jump\t// in\n            tag_39:\n              dup1\n              0x1f\n              add\n              0x20\n              dup1\n              swap2\n              div\n              mul\n              0x20\n              add\n              mload(0x40)\n              swap1\n              dup2\n              add\n              0x40\n              mstore\n              dup1\n              swap3\n              swap2\n              swap1\n              dup2\n              dup2\n              mstore\n              0x20\n              add\n              dup3\n              dup1\n              sload\n              tag_41\n              swap1\n              tag_40\n              jump\t// in\n            tag_41:\n              dup1\n              iszero\n              tag_42\n              jumpi\n              dup1\n              0x1f\n              lt\n              tag_43\n              jumpi\n              0x0100\n              dup1\n              dup4\n              sload\n              div\n              mul\n              dup4\n              mstore\n              swap2\n              0x20\n              add\n              swap2\n              jump(tag_42)\n            tag_43:\n              dup3\n              add\n              swap2\n              swap1\n              0x00\n              mstore\n              keccak256(0x00, 0x20)\n              swap1\n            tag_44:\n              dup2\n              sload\n              dup2\n              mstore\n              swap1\n              0x01\n              add\n              swap1\n              0x20\n              add\n              dup1\n              dup4\n              gt\n              tag_44\n              jumpi\n              dup3\n              swap1\n              sub\n              0x1f\n              and\n              dup3\n              add\n              swap2\n            tag_42:\n              pop\n              pop\n              pop\n              pop\n              pop\n              dup2\n              jump\t// out\n                /* \"contracts/campaign.sol\":2199:2452  function donateAmount() public payable CheckAmount {... */\n            tag_16:\n                /* \"contracts/campaign.sol\":2099:2119  AmountRecivedforFund */\n              sload(0x02)\n                /* \"contracts/campaign.sol\":2077:2096  AmountNeededforFund */\n              sload(0x01)\n                /* \"contracts/campaign.sol\":2077:2119  AmountNeededforFund > AmountRecivedforFund */\n              gt\n                /* \"contracts/campaign.sol\":2056:2175  require(... */\n              tag_46\n              jumpi\n              mload(0x40)\n              0x08c379a000000000000000000000000000000000000000000000000000000000\n              dup2\n              mstore\n              0x04\n              add\n              tag_47\n              swap1\n              tag_48\n              jump\t// in\n            tag_47:\n              mload(0x40)\n              dup1\n              swap2\n              sub\n              swap1\n              revert\n            tag_46:\n                /* \"contracts/campaign.sol\":2260:2265  Owner */\n              0x05\n              0x00\n              swap1\n              sload\n              swap1\n              0x0100\n              exp\n              swap1\n              div\n              0xffffffffffffffffffffffffffffffffffffffff\n              and\n                /* \"contracts/campaign.sol\":2260:2274  Owner.transfer */\n              0xffffffffffffffffffffffffffffffffffffffff\n              and\n                /* \"contracts/campaign.sol\":2260:2285  Owner.transfer(msg.value) */\n              0x08fc\n                /* \"contracts/campaign.sol\":2275:2284  msg.value */\n              callvalue\n                /* \"contracts/campaign.sol\":2260:2285  Owner.transfer(msg.value) */\n              swap1\n              dup2\n              iszero\n              mul\n              swap1\n              mload(0x40)\n              0x00\n              mload(0x40)\n              dup1\n              dup4\n              sub\n              dup2\n              dup6\n              dup9\n              dup9\n              call\n              swap4\n              pop\n              pop\n              pop\n              pop\n              iszero\n              dup1\n              iszero\n              tag_51\n              jumpi\n              returndatasize\n              0x00\n              dup1\n              returndatacopy\n              revert(0x00, returndatasize)\n            tag_51:\n              pop\n                /* \"contracts/campaign.sol\":2347:2356  msg.value */\n              callvalue\n                /* \"contracts/campaign.sol\":2323:2343  AmountRecivedforFund */\n              0x02\n              0x00\n                /* \"contracts/campaign.sol\":2323:2356  AmountRecivedforFund += msg.value */\n              dup3\n              dup3\n              sload\n              tag_52\n              swap2\n              swap1\n              tag_53\n              jump\t// in\n            tag_52:\n              swap3\n              pop\n              pop\n              dup2\n              swap1\n              sstore\n              pop\n                /* \"contracts/campaign.sol\":2429:2444  block.timestamp */\n              timestamp\n                /* \"contracts/campaign.sol\":2418:2427  msg.value */\n              callvalue\n                /* \"contracts/campaign.sol\":2406:2416  msg.sender */\n              caller\n                /* \"contracts/campaign.sol\":2398:2445  donated(msg.sender, msg.value, block.timestamp) */\n              0xffffffffffffffffffffffffffffffffffffffff\n              and\n              0xe6add99d06d9ad7fc456e746aa162eed6211c5002ef2dacdd67b8d2016822fba\n              mload(0x40)\n              mload(0x40)\n              dup1\n              swap2\n              sub\n              swap1\n              log4\n                /* \"contracts/campaign.sol\":2199:2452  function donateAmount() public payable CheckAmount {... */\n              jump\t// out\n                /* \"contracts/campaign.sol\":1459:1489  string public storyofFundCause */\n            tag_19:\n              0x04\n              dup1\n              sload\n              tag_54\n              swap1\n              tag_40\n              jump\t// in\n            tag_54:\n              dup1\n              0x1f\n              add\n              0x20\n              dup1\n              swap2\n              div\n              mul\n              0x20\n              add\n              mload(0x40)\n              swap1\n              dup2\n              add\n              0x40\n              mstore\n              dup1\n              swap3\n              swap2\n              swap1\n              dup2\n              dup2\n              mstore\n              0x20\n              add\n              dup3\n              dup1\n              sload\n              tag_55\n              swap1\n              tag_40\n              jump\t// in\n            tag_55:\n              dup1\n              iszero\n              tag_56\n              jumpi\n              dup1\n              0x1f\n              lt\n              tag_57\n              jumpi\n              0x0100\n              dup1\n              dup4\n              sload\n              div\n              mul\n              dup4\n              mstore\n              swap2\n              0x20\n              add\n              swap2\n              jump(tag_56)\n            tag_57:\n              dup3\n              add\n              swap2\n              swap1\n              0x00\n              mstore\n              keccak256(0x00, 0x20)\n              swap1\n            tag_58:\n              dup2\n              sload\n              dup2\n              mstore\n              swap1\n              0x01\n              add\n              swap1\n              0x20\n              add\n              dup1\n              dup4\n              gt\n              tag_58\n              jumpi\n              dup3\n              swap1\n              sub\n              0x1f\n              and\n              dup3\n              add\n              swap2\n            tag_56:\n              pop\n              pop\n              pop\n              pop\n              pop\n              dup2\n              jump\t// out\n                /* \"contracts/campaign.sol\":1495:1523  address payable public Owner */\n            tag_23:\n              0x05\n              0x00\n              swap1\n              sload\n              swap1\n              0x0100\n              exp\n              swap1\n              div\n              0xffffffffffffffffffffffffffffffffffffffff\n              and\n              dup2\n              jump\t// out\n                /* \"contracts/campaign.sol\":1353:1387  uint256 public AmountNeededforFund */\n            tag_28:\n              sload(0x01)\n              dup2\n              jump\t// out\n                /* \"contracts/campaign.sol\":1393:1428  uint256 public AmountRecivedforFund */\n            tag_33:\n              sload(0x02)\n              dup2\n              jump\t// out\n                /* \"contracts/campaign.sol\":1434:1453  string public image */\n            tag_37:\n              0x03\n              dup1\n              sload\n              tag_59\n              swap1\n              tag_40\n              jump\t// in\n            tag_59:\n              dup1\n              0x1f\n              add\n              0x20\n              dup1\n              swap2\n              div\n              mul\n              0x20\n              add\n              mload(0x40)\n              swap1\n              dup2\n              add\n              0x40\n              mstore\n              dup1\n              swap3\n              swap2\n              swap1\n              dup2\n              dup2\n              mstore\n              0x20\n              add\n              dup3\n              dup1\n              sload\n              tag_60\n              swap1\n              tag_40\n              jump\t// in\n            tag_60:\n              dup1\n              iszero\n              tag_61\n              jumpi\n              dup1\n              0x1f\n              lt\n              tag_62\n              jumpi\n              0x0100\n              dup1\n              dup4\n              sload\n              div\n              mul\n              dup4\n              mstore\n              swap2\n              0x20\n              add\n              swap2\n              jump(tag_61)\n            tag_62:\n              dup3\n              add\n              swap2\n              swap1\n              0x00\n              mstore\n              keccak256(0x00, 0x20)\n              swap1\n            tag_63:\n              dup2\n              sload\n              dup2\n              mstore\n              swap1\n              0x01\n              add\n              swap1\n              0x20\n              add\n              dup1\n              dup4\n              gt\n              tag_63\n              jumpi\n              dup3\n              swap1\n              sub\n              0x1f\n              and\n              dup3\n              add\n              swap2\n            tag_61:\n              pop\n              pop\n              pop\n              pop\n              pop\n              dup2\n              jump\t// out\n                /* \"#utility.yul\":7:106   */\n            tag_64:\n                /* \"#utility.yul\":59:65   */\n              0x00\n                /* \"#utility.yul\":93:98   */\n              dup2\n                /* \"#utility.yul\":87:99   */\n              mload\n                /* \"#utility.yul\":77:99   */\n              swap1\n              pop\n                /* \"#utility.yul\":7:106   */\n              swap2\n              swap1\n              pop\n              jump\t// out\n                /* \"#utility.yul\":112:281   */\n            tag_65:\n                /* \"#utility.yul\":196:207   */\n              0x00\n                /* \"#utility.yul\":230:236   */\n              dup3\n                /* \"#utility.yul\":225:228   */\n              dup3\n                /* \"#utility.yul\":218:237   */\n              mstore\n                /* \"#utility.yul\":270:274   */\n              0x20\n                /* \"#utility.yul\":265:268   */\n              dup3\n                /* \"#utility.yul\":261:275   */\n              add\n                /* \"#utility.yul\":246:275   */\n              swap1\n              pop\n                /* \"#utility.yul\":112:281   */\n              swap3\n              swap2\n              pop\n              pop\n              jump\t// out\n                /* \"#utility.yul\":287:426   */\n            tag_66:\n                /* \"#utility.yul\":376:382   */\n              dup3\n                /* \"#utility.yul\":371:374   */\n              dup2\n                /* \"#utility.yul\":366:369   */\n              dup4\n                /* \"#utility.yul\":360:383   */\n              mcopy\n                /* \"#utility.yul\":417:418   */\n              0x00\n                /* \"#utility.yul\":408:414   */\n              dup4\n                /* \"#utility.yul\":403:406   */\n              dup4\n                /* \"#utility.yul\":399:415   */\n              add\n                /* \"#utility.yul\":392:419   */\n              mstore\n                /* \"#utility.yul\":287:426   */\n              pop\n              pop\n              pop\n              jump\t// out\n                /* \"#utility.yul\":432:534   */\n            tag_67:\n                /* \"#utility.yul\":473:479   */\n              0x00\n                /* \"#utility.yul\":524:526   */\n              0x1f\n                /* \"#utility.yul\":520:527   */\n              not\n                /* \"#utility.yul\":515:517   */\n              0x1f\n                /* \"#utility.yul\":508:513   */\n              dup4\n                /* \"#utility.yul\":504:518   */\n              add\n                /* \"#utility.yul\":500:528   */\n              and\n                /* \"#utility.yul\":490:528   */\n              swap1\n              pop\n                /* \"#utility.yul\":432:534   */\n              swap2\n              swap1\n              pop\n              jump\t// out\n                /* \"#utility.yul\":540:917   */\n            tag_68:\n                /* \"#utility.yul\":628:631   */\n              0x00\n                /* \"#utility.yul\":656:695   */\n              tag_84\n                /* \"#utility.yul\":689:694   */\n              dup3\n                /* \"#utility.yul\":656:695   */\n              tag_64\n              jump\t// in\n            tag_84:\n                /* \"#utility.yul\":711:782   */\n              tag_85\n                /* \"#utility.yul\":775:781   */\n              dup2\n                /* \"#utility.yul\":770:773   */\n              dup6\n                /* \"#utility.yul\":711:782   */\n              tag_65\n              jump\t// in\n            tag_85:\n                /* \"#utility.yul\":704:782   */\n              swap4\n              pop\n                /* \"#utility.yul\":791:856   */\n              tag_86\n                /* \"#utility.yul\":849:855   */\n              dup2\n                /* \"#utility.yul\":844:847   */\n              dup6\n                /* \"#utility.yul\":837:841   */\n              0x20\n                /* \"#utility.yul\":830:835   */\n              dup7\n                /* \"#utility.yul\":826:842   */\n              add\n                /* \"#utility.yul\":791:856   */\n              tag_66\n              jump\t// in\n            tag_86:\n                /* \"#utility.yul\":881:910   */\n              tag_87\n                /* \"#utility.yul\":903:909   */\n              dup2\n                /* \"#utility.yul\":881:910   */\n              tag_67\n              jump\t// in\n            tag_87:\n                /* \"#utility.yul\":876:879   */\n              dup5\n                /* \"#utility.yul\":872:911   */\n              add\n                /* \"#utility.yul\":865:911   */\n              swap2\n              pop\n                /* \"#utility.yul\":632:917   */\n              pop\n                /* \"#utility.yul\":540:917   */\n              swap3\n              swap2\n              pop\n              pop\n              jump\t// out\n                /* \"#utility.yul\":923:1236   */\n            tag_14:\n                /* \"#utility.yul\":1036:1040   */\n              0x00\n                /* \"#utility.yul\":1074:1076   */\n              0x20\n                /* \"#utility.yul\":1063:1072   */\n              dup3\n                /* \"#utility.yul\":1059:1077   */\n              add\n                /* \"#utility.yul\":1051:1077   */\n              swap1\n              pop\n                /* \"#utility.yul\":1123:1132   */\n              dup2\n                /* \"#utility.yul\":1117:1121   */\n              dup2\n                /* \"#utility.yul\":1113:1133   */\n              sub\n                /* \"#utility.yul\":1109:1110   */\n              0x00\n                /* \"#utility.yul\":1098:1107   */\n              dup4\n                /* \"#utility.yul\":1094:1111   */\n              add\n                /* \"#utility.yul\":1087:1134   */\n              mstore\n                /* \"#utility.yul\":1151:1229   */\n              tag_89\n                /* \"#utility.yul\":1224:1228   */\n              dup2\n                /* \"#utility.yul\":1215:1221   */\n              dup5\n                /* \"#utility.yul\":1151:1229   */\n              tag_68\n              jump\t// in\n            tag_89:\n                /* \"#utility.yul\":1143:1229   */\n              swap1\n              pop\n                /* \"#utility.yul\":923:1236   */\n              swap3\n              swap2\n              pop\n              pop\n              jump\t// out\n                /* \"#utility.yul\":1242:1368   */\n            tag_69:\n                /* \"#utility.yul\":1279:1286   */\n              0x00\n                /* \"#utility.yul\":1319:1361   */\n              0xffffffffffffffffffffffffffffffffffffffff\n                /* \"#utility.yul\":1312:1317   */\n              dup3\n                /* \"#utility.yul\":1308:1362   */\n              and\n                /* \"#utility.yul\":1297:1362   */\n              swap1\n              pop\n                /* \"#utility.yul\":1242:1368   */\n              swap2\n              swap1\n              pop\n              jump\t// out\n                /* \"#utility.yul\":1374:1478   */\n            tag_70:\n                /* \"#utility.yul\":1419:1426   */\n              0x00\n                /* \"#utility.yul\":1448:1472   */\n              tag_92\n                /* \"#utility.yul\":1466:1471   */\n              dup3\n                /* \"#utility.yul\":1448:1472   */\n              tag_69\n              jump\t// in\n            tag_92:\n                /* \"#utility.yul\":1437:1472   */\n              swap1\n              pop\n                /* \"#utility.yul\":1374:1478   */\n              swap2\n              swap1\n              pop\n              jump\t// out\n                /* \"#utility.yul\":1484:1626   */\n            tag_71:\n                /* \"#utility.yul\":1587:1619   */\n              tag_94\n                /* \"#utility.yul\":1613:1618   */\n              dup2\n                /* \"#utility.yul\":1587:1619   */\n              tag_70\n              jump\t// in\n            tag_94:\n                /* \"#utility.yul\":1582:1585   */\n              dup3\n                /* \"#utility.yul\":1575:1620   */\n              mstore\n                /* \"#utility.yul\":1484:1626   */\n              pop\n              pop\n              jump\t// out\n                /* \"#utility.yul\":1632:1886   */\n            tag_25:\n                /* \"#utility.yul\":1741:1745   */\n              0x00\n                /* \"#utility.yul\":1779:1781   */\n              0x20\n                /* \"#utility.yul\":1768:1777   */\n              dup3\n                /* \"#utility.yul\":1764:1782   */\n              add\n                /* \"#utility.yul\":1756:1782   */\n              swap1\n              pop\n                /* \"#utility.yul\":1792:1879   */\n              tag_96\n                /* \"#utility.yul\":1876:1877   */\n              0x00\n                /* \"#utility.yul\":1865:1874   */\n              dup4\n                /* \"#utility.yul\":1861:1878   */\n              add\n                /* \"#utility.yul\":1852:1858   */\n              dup5\n                /* \"#utility.yul\":1792:1879   */\n              tag_71\n              jump\t// in\n            tag_96:\n                /* \"#utility.yul\":1632:1886   */\n              swap3\n              swap2\n              pop\n              pop\n              jump\t// out\n                /* \"#utility.yul\":1892:1969   */\n            tag_72:\n                /* \"#utility.yul\":1929:1936   */\n              0x00\n                /* \"#utility.yul\":1958:1963   */\n              dup2\n                /* \"#utility.yul\":1947:1963   */\n              swap1\n              pop\n                /* \"#utility.yul\":1892:1969   */\n              swap2\n              swap1\n              pop\n              jump\t// out\n                /* \"#utility.yul\":1975:2093   */\n            tag_73:\n                /* \"#utility.yul\":2062:2086   */\n              tag_99\n                /* \"#utility.yul\":2080:2085   */\n              dup2\n                /* \"#utility.yul\":2062:2086   */\n              tag_72\n              jump\t// in\n            tag_99:\n                /* \"#utility.yul\":2057:2060   */\n              dup3\n                /* \"#utility.yul\":2050:2087   */\n              mstore\n                /* \"#utility.yul\":1975:2093   */\n              pop\n              pop\n              jump\t// out\n                /* \"#utility.yul\":2099:2321   */\n            tag_30:\n                /* \"#utility.yul\":2192:2196   */\n              0x00\n                /* \"#utility.yul\":2230:2232   */\n              0x20\n                /* \"#utility.yul\":2219:2228   */\n              dup3\n                /* \"#utility.yul\":2215:2233   */\n              add\n                /* \"#utility.yul\":2207:2233   */\n              swap1\n              pop\n                /* \"#utility.yul\":2243:2314   */\n              tag_101\n                /* \"#utility.yul\":2311:2312   */\n              0x00\n                /* \"#utility.yul\":2300:2309   */\n              dup4\n                /* \"#utility.yul\":2296:2313   */\n              add\n                /* \"#utility.yul\":2287:2293   */\n              dup5\n                /* \"#utility.yul\":2243:2314   */\n              tag_73\n              jump\t// in\n            tag_101:\n                /* \"#utility.yul\":2099:2321   */\n              swap3\n              swap2\n              pop\n              pop\n              jump\t// out\n                /* \"#utility.yul\":2327:2507   */\n            tag_74:\n                /* \"#utility.yul\":2375:2452   */\n              0x4e487b7100000000000000000000000000000000000000000000000000000000\n                /* \"#utility.yul\":2372:2373   */\n              0x00\n                /* \"#utility.yul\":2365:2453   */\n              mstore\n                /* \"#utility.yul\":2472:2476   */\n              0x22\n                /* \"#utility.yul\":2469:2470   */\n              0x04\n                /* \"#utility.yul\":2462:2477   */\n              mstore\n                /* \"#utility.yul\":2496:2500   */\n              0x24\n                /* \"#utility.yul\":2493:2494   */\n              0x00\n                /* \"#utility.yul\":2486:2501   */\n              revert\n                /* \"#utility.yul\":2513:2833   */\n            tag_40:\n                /* \"#utility.yul\":2557:2563   */\n              0x00\n                /* \"#utility.yul\":2594:2595   */\n              0x02\n                /* \"#utility.yul\":2588:2592   */\n              dup3\n                /* \"#utility.yul\":2584:2596   */\n              div\n                /* \"#utility.yul\":2574:2596   */\n              swap1\n              pop\n                /* \"#utility.yul\":2641:2642   */\n              0x01\n                /* \"#utility.yul\":2635:2639   */\n              dup3\n                /* \"#utility.yul\":2631:2643   */\n              and\n                /* \"#utility.yul\":2662:2680   */\n              dup1\n                /* \"#utility.yul\":2652:2733   */\n              tag_104\n              jumpi\n                /* \"#utility.yul\":2718:2722   */\n              0x7f\n                /* \"#utility.yul\":2710:2716   */\n              dup3\n                /* \"#utility.yul\":2706:2723   */\n              and\n                /* \"#utility.yul\":2696:2723   */\n              swap2\n              pop\n                /* \"#utility.yul\":2652:2733   */\n            tag_104:\n                /* \"#utility.yul\":2780:2782   */\n              0x20\n                /* \"#utility.yul\":2772:2778   */\n              dup3\n                /* \"#utility.yul\":2769:2783   */\n              lt\n                /* \"#utility.yul\":2749:2767   */\n              dup2\n                /* \"#utility.yul\":2746:2784   */\n              sub\n                /* \"#utility.yul\":2743:2827   */\n              tag_105\n              jumpi\n                /* \"#utility.yul\":2799:2817   */\n              tag_106\n              tag_74\n              jump\t// in\n            tag_106:\n                /* \"#utility.yul\":2743:2827   */\n            tag_105:\n                /* \"#utility.yul\":2564:2833   */\n              pop\n                /* \"#utility.yul\":2513:2833   */\n              swap2\n              swap1\n              pop\n              jump\t// out\n                /* \"#utility.yul\":2839:3019   */\n            tag_75:\n                /* \"#utility.yul\":2979:3011   */\n              0x546f74616c416d6f756e7420686173206265656e20636f6c6c65637465640000\n                /* \"#utility.yul\":2975:2976   */\n              0x00\n                /* \"#utility.yul\":2967:2973   */\n              dup3\n                /* \"#utility.yul\":2963:2977   */\n              add\n                /* \"#utility.yul\":2956:3012   */\n              mstore\n                /* \"#utility.yul\":2839:3019   */\n              pop\n              jump\t// out\n                /* \"#utility.yul\":3025:3391   */\n            tag_76:\n                /* \"#utility.yul\":3167:3170   */\n              0x00\n                /* \"#utility.yul\":3188:3255   */\n              tag_109\n                /* \"#utility.yul\":3252:3254   */\n              0x1e\n                /* \"#utility.yul\":3247:3250   */\n              dup4\n                /* \"#utility.yul\":3188:3255   */\n              tag_65\n              jump\t// in\n            tag_109:\n                /* \"#utility.yul\":3181:3255   */\n              swap2\n              pop\n                /* \"#utility.yul\":3264:3357   */\n              tag_110\n                /* \"#utility.yul\":3353:3356   */\n              dup3\n                /* \"#utility.yul\":3264:3357   */\n              tag_75\n              jump\t// in\n            tag_110:\n                /* \"#utility.yul\":3382:3384   */\n              0x20\n                /* \"#utility.yul\":3377:3380   */\n              dup3\n                /* \"#utility.yul\":3373:3385   */\n              add\n                /* \"#utility.yul\":3366:3385   */\n              swap1\n              pop\n                /* \"#utility.yul\":3025:3391   */\n              swap2\n              swap1\n              pop\n              jump\t// out\n                /* \"#utility.yul\":3397:3816   */\n            tag_48:\n                /* \"#utility.yul\":3563:3567   */\n              0x00\n                /* \"#utility.yul\":3601:3603   */\n              0x20\n                /* \"#utility.yul\":3590:3599   */\n              dup3\n                /* \"#utility.yul\":3586:3604   */\n              add\n                /* \"#utility.yul\":3578:3604   */\n              swap1\n              pop\n                /* \"#utility.yul\":3650:3659   */\n              dup2\n                /* \"#utility.yul\":3644:3648   */\n              dup2\n                /* \"#utility.yul\":3640:3660   */\n              sub\n                /* \"#utility.yul\":3636:3637   */\n              0x00\n                /* \"#utility.yul\":3625:3634   */\n              dup4\n                /* \"#utility.yul\":3621:3638   */\n              add\n                /* \"#utility.yul\":3614:3661   */\n              mstore\n                /* \"#utility.yul\":3678:3809   */\n              tag_112\n                /* \"#utility.yul\":3804:3808   */\n              dup2\n                /* \"#utility.yul\":3678:3809   */\n              tag_76\n              jump\t// in\n            tag_112:\n                /* \"#utility.yul\":3670:3809   */\n              swap1\n              pop\n                /* \"#utility.yul\":3397:3816   */\n              swap2\n              swap1\n              pop\n              jump\t// out\n                /* \"#utility.yul\":3822:4002   */\n            tag_77:\n                /* \"#utility.yul\":3870:3947   */\n              0x4e487b7100000000000000000000000000000000000000000000000000000000\n                /* \"#utility.yul\":3867:3868   */\n              0x00\n                /* \"#utility.yul\":3860:3948   */\n              mstore\n                /* \"#utility.yul\":3967:3971   */\n              0x11\n                /* \"#utility.yul\":3964:3965   */\n              0x04\n                /* \"#utility.yul\":3957:3972   */\n              mstore\n                /* \"#utility.yul\":3991:3995   */\n              0x24\n                /* \"#utility.yul\":3988:3989   */\n              0x00\n                /* \"#utility.yul\":3981:3996   */\n              revert\n                /* \"#utility.yul\":4008:4199   */\n            tag_53:\n                /* \"#utility.yul\":4048:4051   */\n              0x00\n                /* \"#utility.yul\":4067:4087   */\n              tag_115\n                /* \"#utility.yul\":4085:4086   */\n              dup3\n                /* \"#utility.yul\":4067:4087   */\n              tag_72\n              jump\t// in\n            tag_115:\n                /* \"#utility.yul\":4062:4087   */\n              swap2\n              pop\n                /* \"#utility.yul\":4101:4121   */\n              tag_116\n                /* \"#utility.yul\":4119:4120   */\n              dup4\n                /* \"#utility.yul\":4101:4121   */\n              tag_72\n              jump\t// in\n            tag_116:\n                /* \"#utility.yul\":4096:4121   */\n              swap3\n              pop\n                /* \"#utility.yul\":4144:4145   */\n              dup3\n                /* \"#utility.yul\":4141:4142   */\n              dup3\n                /* \"#utility.yul\":4137:4146   */\n              add\n                /* \"#utility.yul\":4130:4146   */\n              swap1\n              pop\n                /* \"#utility.yul\":4165:4168   */\n              dup1\n                /* \"#utility.yul\":4162:4163   */\n              dup3\n                /* \"#utility.yul\":4159:4169   */\n              gt\n                /* \"#utility.yul\":4156:4192   */\n              iszero\n              tag_117\n              jumpi\n                /* \"#utility.yul\":4172:4190   */\n              tag_118\n              tag_77\n              jump\t// in\n            tag_118:\n                /* \"#utility.yul\":4156:4192   */\n            tag_117:\n                /* \"#utility.yul\":4008:4199   */\n              swap3\n              swap2\n              pop\n              pop\n              jump\t// out\n\n            auxdata: 0xa2646970667358221220fc4c4f8ca7ae37d51b6fb1bc265d803b70a0aacccf5a8cdcd7b063f4fb69c5b264736f6c634300081a0033\n        }\n    }\n\n    auxdata: 0xa2646970667358221220f3c220dc70bf5e4d50ac12542635c4008c35e5b506f858173a15ee06c93c2c6a64736f6c634300081a0033\n}\n",
				"bytecode": {
					"linkReferences": {},
					"object": "6080604052348015600e575f80fd5b506113098061001c5f395ff3fe608060405234801561000f575f80fd5b5060043610610034575f3560e01c806325e1db4d1461003857806330b99a2514610068575b5f80fd5b610052600480360381019061004d919061021d565b610084565b60405161005f9190610287565b60405180910390f35b610082600480360381019061007d91906103dc565b6100be565b005b5f8181548110610092575f80fd5b905f5260205f20015f915054906101000a900473ffffffffffffffffffffffffffffffffffffffff1681565b5f858585846040516100cf906101cc565b6100dc9493929190610532565b604051809103905ff0801580156100f5573d5f803e3d5ffd5b5090505f81908060018154018082558091505060019003905f5260205f20015f9091909190916101000a81548173ffffffffffffffffffffffffffffffffffffffff021916908373ffffffffffffffffffffffffffffffffffffffff1602179055508260405161016591906105c4565b6040518091039020423373ffffffffffffffffffffffffffffffffffffffff167f8c19c3254560e386bca91176db8f76ece4d35af1afca17e1d77745d9e3f081018989868a896040516101bc9594939291906105da565b60405180910390a4505050505050565b610c938061064183390190565b5f604051905090565b5f80fd5b5f80fd5b5f819050919050565b6101fc816101ea565b8114610206575f80fd5b50565b5f81359050610217816101f3565b92915050565b5f60208284031215610232576102316101e2565b5b5f61023f84828501610209565b91505092915050565b5f73ffffffffffffffffffffffffffffffffffffffff82169050919050565b5f61027182610248565b9050919050565b61028181610267565b82525050565b5f60208201905061029a5f830184610278565b92915050565b5f80fd5b5f80fd5b5f601f19601f8301169050919050565b7f4e487b71000000000000000000000000000000000000000000000000000000005f52604160045260245ffd5b6102ee826102a8565b810181811067ffffffffffffffff8211171561030d5761030c6102b8565b5b80604052505050565b5f61031f6101d9565b905061032b82826102e5565b919050565b5f67ffffffffffffffff82111561034a576103496102b8565b5b610353826102a8565b9050602081019050919050565b828183375f83830152505050565b5f61038061037b84610330565b610316565b90508281526020810184848401111561039c5761039b6102a4565b5b6103a7848285610360565b509392505050565b5f82601f8301126103c3576103c26102a0565b5b81356103d384826020860161036e565b91505092915050565b5f805f805f60a086880312156103f5576103f46101e2565b5b5f86013567ffffffffffffffff811115610412576104116101e6565b5b61041e888289016103af565b955050602061042f88828901610209565b945050604086013567ffffffffffffffff8111156104505761044f6101e6565b5b61045c888289016103af565b935050606086013567ffffffffffffffff81111561047d5761047c6101e6565b5b610489888289016103af565b925050608086013567ffffffffffffffff8111156104aa576104a96101e6565b5b6104b6888289016103af565b9150509295509295909350565b5f81519050919050565b5f82825260208201905092915050565b8281835e5f83830152505050565b5f6104f5826104c3565b6104ff81856104cd565b935061050f8185602086016104dd565b610518816102a8565b840191505092915050565b61052c816101ea565b82525050565b5f6080820190508181035f83015261054a81876104eb565b90506105596020830186610523565b818103604083015261056b81856104eb565b9050818103606083015261057f81846104eb565b905095945050505050565b5f81905092915050565b5f61059e826104c3565b6105a8818561058a565b93506105b88185602086016104dd565b80840191505092915050565b5f6105cf8284610594565b915081905092915050565b5f60a0820190508181035f8301526105f281886104eb565b90506106016020830187610523565b61060e6040830186610278565b818103606083015261062081856104eb565b9050818103608083015261063481846104eb565b9050969550505050505056fe608060405234801561000f575f80fd5b50604051610c93380380610c9383398181016040528101906100319190610230565b835f908161003f91906104ec565b5082600181905550816003908161005691906104ec565b50806004908161006691906104ec565b503360055f6101000a81548173ffffffffffffffffffffffffffffffffffffffff021916908373ffffffffffffffffffffffffffffffffffffffff160217905550505050506105bb565b5f604051905090565b5f80fd5b5f80fd5b5f80fd5b5f80fd5b5f601f19601f8301169050919050565b7f4e487b71000000000000000000000000000000000000000000000000000000005f52604160045260245ffd5b61010f826100c9565b810181811067ffffffffffffffff8211171561012e5761012d6100d9565b5b80604052505050565b5f6101406100b0565b905061014c8282610106565b919050565b5f67ffffffffffffffff82111561016b5761016a6100d9565b5b610174826100c9565b9050602081019050919050565b8281835e5f83830152505050565b5f6101a161019c84610151565b610137565b9050828152602081018484840111156101bd576101bc6100c5565b5b6101c8848285610181565b509392505050565b5f82601f8301126101e4576101e36100c1565b5b81516101f484826020860161018f565b91505092915050565b5f819050919050565b61020f816101fd565b8114610219575f80fd5b50565b5f8151905061022a81610206565b92915050565b5f805f8060808587031215610248576102476100b9565b5b5f85015167ffffffffffffffff811115610265576102646100bd565b5b610271878288016101d0565b94505060206102828782880161021c565b935050604085015167ffffffffffffffff8111156102a3576102a26100bd565b5b6102af878288016101d0565b925050606085015167ffffffffffffffff8111156102d0576102cf6100bd565b5b6102dc878288016101d0565b91505092959194509250565b5f81519050919050565b7f4e487b71000000000000000000000000000000000000000000000000000000005f52602260045260245ffd5b5f600282049050600182168061033657607f821691505b602082108103610349576103486102f2565b5b50919050565b5f819050815f5260205f209050919050565b5f6020601f8301049050919050565b5f82821b905092915050565b5f600883026103ab7fffffffffffffffffffffffffffffffffffffffffffffffffffffffffffffffff82610370565b6103b58683610370565b95508019841693508086168417925050509392505050565b5f819050919050565b5f6103f06103eb6103e6846101fd565b6103cd565b6101fd565b9050919050565b5f819050919050565b610409836103d6565b61041d610415826103f7565b84845461037c565b825550505050565b5f90565b610431610425565b61043c818484610400565b505050565b5b8181101561045f576104545f82610429565b600181019050610442565b5050565b601f8211156104a4576104758161034f565b61047e84610361565b8101602085101561048d578190505b6104a161049985610361565b830182610441565b50505b505050565b5f82821c905092915050565b5f6104c45f19846008026104a9565b1980831691505092915050565b5f6104dc83836104b5565b9150826002028217905092915050565b6104f5826102e8565b67ffffffffffffffff81111561050e5761050d6100d9565b5b610518825461031f565b610523828285610463565b5f60209050601f831160018114610554575f8415610542578287015190505b61054c85826104d1565b8655506105b3565b601f1984166105628661034f565b5f5b8281101561058957848901518255600182019150602085019450602081019050610564565b868310156105a657848901516105a2601f8916826104b5565b8355505b6001600288020188555050505b505050505050565b6106cb806105c85f395ff3fe60806040526004361061006f575f3560e01c8063b4a99a4e1161004d578063b4a99a4e146100d1578063b529ef96146100fb578063cdff42bf14610125578063f3ccaac01461014f5761006f565b80634a79d50c14610073578063965044d51461009d5780639d7afdf3146100a7575b5f80fd5b34801561007e575f80fd5b50610087610179565b60405161009491906104c7565b60405180910390f35b6100a5610204565b005b3480156100b2575f80fd5b506100bb61030e565b6040516100c891906104c7565b60405180910390f35b3480156100dc575f80fd5b506100e561039a565b6040516100f29190610526565b60405180910390f35b348015610106575f80fd5b5061010f6103bf565b60405161011c9190610557565b60405180910390f35b348015610130575f80fd5b506101396103c5565b6040516101469190610557565b60405180910390f35b34801561015a575f80fd5b506101636103cb565b60405161017091906104c7565b60405180910390f35b5f80546101859061059d565b80601f01602080910402602001604051908101604052809291908181526020018280546101b19061059d565b80156101fc5780601f106101d3576101008083540402835291602001916101fc565b820191905f5260205f20905b8154815290600101906020018083116101df57829003601f168201915b505050505081565b6002546001541161024a576040517f08c379a000000000000000000000000000000000000000000000000000000000815260040161024190610617565b60405180910390fd5b60055f9054906101000a900473ffffffffffffffffffffffffffffffffffffffff1673ffffffffffffffffffffffffffffffffffffffff166108fc3490811502906040515f60405180830381858888f193505050501580156102ae573d5f803e3d5ffd5b503460025f8282546102c09190610662565b9250508190555042343373ffffffffffffffffffffffffffffffffffffffff167fe6add99d06d9ad7fc456e746aa162eed6211c5002ef2dacdd67b8d2016822fba60405160405180910390a4565b6004805461031b9061059d565b80601f01602080910402602001604051908101604052809291908181526020018280546103479061059d565b80156103925780601f1061036957610100808354040283529160200191610392565b820191905f5260205f20905b81548152906001019060200180831161037557829003601f168201915b505050505081565b60055f9054906101000a900473ffffffffffffffffffffffffffffffffffffffff1681565b60015481565b60025481565b600380546103d89061059d565b80601f01602080910402602001604051908101604052809291908181526020018280546104049061059d565b801561044f5780601f106104265761010080835404028352916020019161044f565b820191905f5260205f20905b81548152906001019060200180831161043257829003601f168201915b505050505081565b5f81519050919050565b5f82825260208201905092915050565b8281835e5f83830152505050565b5f601f19601f8301169050919050565b5f61049982610457565b6104a38185610461565b93506104b3818560208601610471565b6104bc8161047f565b840191505092915050565b5f6020820190508181035f8301526104df818461048f565b905092915050565b5f73ffffffffffffffffffffffffffffffffffffffff82169050919050565b5f610510826104e7565b9050919050565b61052081610506565b82525050565b5f6020820190506105395f830184610517565b92915050565b5f819050919050565b6105518161053f565b82525050565b5f60208201905061056a5f830184610548565b92915050565b7f4e487b71000000000000000000000000000000000000000000000000000000005f52602260045260245ffd5b5f60028204905060018216806105b457607f821691505b6020821081036105c7576105c6610570565b5b50919050565b7f546f74616c416d6f756e7420686173206265656e20636f6c6c656374656400005f82015250565b5f610601601e83610461565b915061060c826105cd565b602082019050919050565b5f6020820190508181035f83015261062e816105f5565b9050919050565b7f4e487b71000000000000000000000000000000000000000000000000000000005f52601160045260245ffd5b5f61066c8261053f565b91506106778361053f565b925082820190508082111561068f5761068e610635565b5b9291505056fea2646970667358221220fc4c4f8ca7ae37d51b6fb1bc265d803b70a0aacccf5a8cdcd7b063f4fb69c5b264736f6c634300081a0033a2646970667358221220f3c220dc70bf5e4d50ac12542635c4008c35e5b506f858173a15ee06c93c2c6a64736f6c634300081a0033",
					"opcodes": "PUSH1 0x80 PUSH1 0x40 MSTORE CALLVALUE DUP1 ISZERO PUSH1 0xE JUMPI PUSH0 DUP1 REVERT JUMPDEST POP PUSH2 0x1309 DUP1 PUSH2 0x1C PUSH0 CODECOPY PUSH0 RETURN INVALID PUSH1 0x80 PUSH1 0x40 MSTORE CALLVALUE DUP1 ISZERO PUSH2 0xF JUMPI PUSH0 DUP1 REVERT JUMPDEST POP PUSH1 0x4 CALLDATASIZE LT PUSH2 0x34 JUMPI PUSH0 CALLDATALOAD PUSH1 0xE0 SHR DUP1 PUSH4 0x25E1DB4D EQ PUSH2 0x38 JUMPI DUP1 PUSH4 0x30B99A25 EQ PUSH2 0x68 JUMPI JUMPDEST PUSH0 DUP1 REVERT JUMPDEST PUSH2 0x52 PUSH1 0x4 DUP1 CALLDATASIZE SUB DUP2 ADD SWAP1 PUSH2 0x4D SWAP2 SWAP1 PUSH2 0x21D JUMP JUMPDEST PUSH2 0x84 JUMP JUMPDEST PUSH1 0x40 MLOAD PUSH2 0x5F SWAP2 SWAP1 PUSH2 0x287 JUMP JUMPDEST PUSH1 0x40 MLOAD DUP1 SWAP2 SUB SWAP1 RETURN JUMPDEST PUSH2 0x82 PUSH1 0x4 DUP1 CALLDATASIZE SUB DUP2 ADD SWAP1 PUSH2 0x7D SWAP2 SWAP1 PUSH2 0x3DC JUMP JUMPDEST PUSH2 0xBE JUMP JUMPDEST STOP JUMPDEST PUSH0 DUP2 DUP2 SLOAD DUP2 LT PUSH2 0x92 JUMPI PUSH0 DUP1 REVERT JUMPDEST SWAP1 PUSH0 MSTORE PUSH1 0x20 PUSH0 KECCAK256 ADD PUSH0 SWAP2 POP SLOAD SWAP1 PUSH2 0x100 EXP SWAP1 DIV PUSH20 0xFFFFFFFFFFFFFFFFFFFFFFFFFFFFFFFFFFFFFFFF AND DUP2 JUMP JUMPDEST PUSH0 DUP6 DUP6 DUP6 DUP5 PUSH1 0x40 MLOAD PUSH2 0xCF SWAP1 PUSH2 0x1CC JUMP JUMPDEST PUSH2 0xDC SWAP5 SWAP4 SWAP3 SWAP2 SWAP1 PUSH2 0x532 JUMP JUMPDEST PUSH1 0x40 MLOAD DUP1 SWAP2 SUB SWAP1 PUSH0 CREATE DUP1 ISZERO DUP1 ISZERO PUSH2 0xF5 JUMPI RETURNDATASIZE PUSH0 DUP1 RETURNDATACOPY RETURNDATASIZE PUSH0 REVERT JUMPDEST POP SWAP1 POP PUSH0 DUP2 SWAP1 DUP1 PUSH1 0x1 DUP2 SLOAD ADD DUP1 DUP3 SSTORE DUP1 SWAP2 POP POP PUSH1 0x1 SWAP1 SUB SWAP1 PUSH0 MSTORE PUSH1 0x20 PUSH0 KECCAK256 ADD PUSH0 SWAP1 SWAP2 SWAP1 SWAP2 SWAP1 SWAP2 PUSH2 0x100 EXP DUP2 SLOAD DUP2 PUSH20 0xFFFFFFFFFFFFFFFFFFFFFFFFFFFFFFFFFFFFFFFF MUL NOT AND SWAP1 DUP4 PUSH20 0xFFFFFFFFFFFFFFFFFFFFFFFFFFFFFFFFFFFFFFFF AND MUL OR SWAP1 SSTORE POP DUP3 PUSH1 0x40 MLOAD PUSH2 0x165 SWAP2 SWAP1 PUSH2 0x5C4 JUMP JUMPDEST PUSH1 0x40 MLOAD DUP1 SWAP2 SUB SWAP1 KECCAK256 TIMESTAMP CALLER PUSH20 0xFFFFFFFFFFFFFFFFFFFFFFFFFFFFFFFFFFFFFFFF AND PUSH32 0x8C19C3254560E386BCA91176DB8F76ECE4D35AF1AFCA17E1D77745D9E3F08101 DUP10 DUP10 DUP7 DUP11 DUP10 PUSH1 0x40 MLOAD PUSH2 0x1BC SWAP6 SWAP5 SWAP4 SWAP3 SWAP2 SWAP1 PUSH2 0x5DA JUMP JUMPDEST PUSH1 0x40 MLOAD DUP1 SWAP2 SUB SWAP1 LOG4 POP POP POP POP POP POP JUMP JUMPDEST PUSH2 0xC93 DUP1 PUSH2 0x641 DUP4 CODECOPY ADD SWAP1 JUMP JUMPDEST PUSH0 PUSH1 0x40 MLOAD SWAP1 POP SWAP1 JUMP JUMPDEST PUSH0 DUP1 REVERT JUMPDEST PUSH0 DUP1 REVERT JUMPDEST PUSH0 DUP2 SWAP1 POP SWAP2 SWAP1 POP JUMP JUMPDEST PUSH2 0x1FC DUP2 PUSH2 0x1EA JUMP JUMPDEST DUP2 EQ PUSH2 0x206 JUMPI PUSH0 DUP1 REVERT JUMPDEST POP JUMP JUMPDEST PUSH0 DUP2 CALLDATALOAD SWAP1 POP PUSH2 0x217 DUP2 PUSH2 0x1F3 JUMP JUMPDEST SWAP3 SWAP2 POP POP JUMP JUMPDEST PUSH0 PUSH1 0x20 DUP3 DUP5 SUB SLT ISZERO PUSH2 0x232 JUMPI PUSH2 0x231 PUSH2 0x1E2 JUMP JUMPDEST JUMPDEST PUSH0 PUSH2 0x23F DUP5 DUP3 DUP6 ADD PUSH2 0x209 JUMP JUMPDEST SWAP2 POP POP SWAP3 SWAP2 POP POP JUMP JUMPDEST PUSH0 PUSH20 0xFFFFFFFFFFFFFFFFFFFFFFFFFFFFFFFFFFFFFFFF DUP3 AND SWAP1 POP SWAP2 SWAP1 POP JUMP JUMPDEST PUSH0 PUSH2 0x271 DUP3 PUSH2 0x248 JUMP JUMPDEST SWAP1 POP SWAP2 SWAP1 POP JUMP JUMPDEST PUSH2 0x281 DUP2 PUSH2 0x267 JUMP JUMPDEST DUP3 MSTORE POP POP JUMP JUMPDEST PUSH0 PUSH1 0x20 DUP3 ADD SWAP1 POP PUSH2 0x29A PUSH0 DUP4 ADD DUP5 PUSH2 0x278 JUMP JUMPDEST SWAP3 SWAP2 POP POP JUMP JUMPDEST PUSH0 DUP1 REVERT JUMPDEST PUSH0 DUP1 REVERT JUMPDEST PUSH0 PUSH1 0x1F NOT PUSH1 0x1F DUP4 ADD AND SWAP1 POP SWAP2 SWAP1 POP JUMP JUMPDEST PUSH32 0x4E487B7100000000000000000000000000000000000000000000000000000000 PUSH0 MSTORE PUSH1 0x41 PUSH1 0x4 MSTORE PUSH1 0x24 PUSH0 REVERT JUMPDEST PUSH2 0x2EE DUP3 PUSH2 0x2A8 JUMP JUMPDEST DUP2 ADD DUP2 DUP2 LT PUSH8 0xFFFFFFFFFFFFFFFF DUP3 GT OR ISZERO PUSH2 0x30D JUMPI PUSH2 0x30C PUSH2 0x2B8 JUMP JUMPDEST JUMPDEST DUP1 PUSH1 0x40 MSTORE POP POP POP JUMP JUMPDEST PUSH0 PUSH2 0x31F PUSH2 0x1D9 JUMP JUMPDEST SWAP1 POP PUSH2 0x32B DUP3 DUP3 PUSH2 0x2E5 JUMP JUMPDEST SWAP2 SWAP1 POP JUMP JUMPDEST PUSH0 PUSH8 0xFFFFFFFFFFFFFFFF DUP3 GT ISZERO PUSH2 0x34A JUMPI PUSH2 0x349 PUSH2 0x2B8 JUMP JUMPDEST JUMPDEST PUSH2 0x353 DUP3 PUSH2 0x2A8 JUMP JUMPDEST SWAP1 POP PUSH1 0x20 DUP2 ADD SWAP1 POP SWAP2 SWAP1 POP JUMP JUMPDEST DUP3 DUP2 DUP4 CALLDATACOPY PUSH0 DUP4 DUP4 ADD MSTORE POP POP POP JUMP JUMPDEST PUSH0 PUSH2 0x380 PUSH2 0x37B DUP5 PUSH2 0x330 JUMP JUMPDEST PUSH2 0x316 JUMP JUMPDEST SWAP1 POP DUP3 DUP2 MSTORE PUSH1 0x20 DUP2 ADD DUP5 DUP5 DUP5 ADD GT ISZERO PUSH2 0x39C JUMPI PUSH2 0x39B PUSH2 0x2A4 JUMP JUMPDEST JUMPDEST PUSH2 0x3A7 DUP5 DUP3 DUP6 PUSH2 0x360 JUMP JUMPDEST POP SWAP4 SWAP3 POP POP POP JUMP JUMPDEST PUSH0 DUP3 PUSH1 0x1F DUP4 ADD SLT PUSH2 0x3C3 JUMPI PUSH2 0x3C2 PUSH2 0x2A0 JUMP JUMPDEST JUMPDEST DUP2 CALLDATALOAD PUSH2 0x3D3 DUP5 DUP3 PUSH1 0x20 DUP7 ADD PUSH2 0x36E JUMP JUMPDEST SWAP2 POP POP SWAP3 SWAP2 POP POP JUMP JUMPDEST PUSH0 DUP1 PUSH0 DUP1 PUSH0 PUSH1 0xA0 DUP7 DUP9 SUB SLT ISZERO PUSH2 0x3F5 JUMPI PUSH2 0x3F4 PUSH2 0x1E2 JUMP JUMPDEST JUMPDEST PUSH0 DUP7 ADD CALLDATALOAD PUSH8 0xFFFFFFFFFFFFFFFF DUP2 GT ISZERO PUSH2 0x412 JUMPI PUSH2 0x411 PUSH2 0x1E6 JUMP JUMPDEST JUMPDEST PUSH2 0x41E DUP9 DUP3 DUP10 ADD PUSH2 0x3AF JUMP JUMPDEST SWAP6 POP POP PUSH1 0x20 PUSH2 0x42F DUP9 DUP3 DUP10 ADD PUSH2 0x209 JUMP JUMPDEST SWAP5 POP POP PUSH1 0x40 DUP7 ADD CALLDATALOAD PUSH8 0xFFFFFFFFFFFFFFFF DUP2 GT ISZERO PUSH2 0x450 JUMPI PUSH2 0x44F PUSH2 0x1E6 JUMP JUMPDEST JUMPDEST PUSH2 0x45C DUP9 DUP3 DUP10 ADD PUSH2 0x3AF JUMP JUMPDEST SWAP4 POP POP PUSH1 0x60 DUP7 ADD CALLDATALOAD PUSH8 0xFFFFFFFFFFFFFFFF DUP2 GT ISZERO PUSH2 0x47D JUMPI PUSH2 0x47C PUSH2 0x1E6 JUMP JUMPDEST JUMPDEST PUSH2 0x489 DUP9 DUP3 DUP10 ADD PUSH2 0x3AF JUMP JUMPDEST SWAP3 POP POP PUSH1 0x80 DUP7 ADD CALLDATALOAD PUSH8 0xFFFFFFFFFFFFFFFF DUP2 GT ISZERO PUSH2 0x4AA JUMPI PUSH2 0x4A9 PUSH2 0x1E6 JUMP JUMPDEST JUMPDEST PUSH2 0x4B6 DUP9 DUP3 DUP10 ADD PUSH2 0x3AF JUMP JUMPDEST SWAP2 POP POP SWAP3 SWAP6 POP SWAP3 SWAP6 SWAP1 SWAP4 POP JUMP JUMPDEST PUSH0 DUP2 MLOAD SWAP1 POP SWAP2 SWAP1 POP JUMP JUMPDEST PUSH0 DUP3 DUP3 MSTORE PUSH1 0x20 DUP3 ADD SWAP1 POP SWAP3 SWAP2 POP POP JUMP JUMPDEST DUP3 DUP2 DUP4 MCOPY PUSH0 DUP4 DUP4 ADD MSTORE POP POP POP JUMP JUMPDEST PUSH0 PUSH2 0x4F5 DUP3 PUSH2 0x4C3 JUMP JUMPDEST PUSH2 0x4FF DUP2 DUP6 PUSH2 0x4CD JUMP JUMPDEST SWAP4 POP PUSH2 0x50F DUP2 DUP6 PUSH1 0x20 DUP7 ADD PUSH2 0x4DD JUMP JUMPDEST PUSH2 0x518 DUP2 PUSH2 0x2A8 JUMP JUMPDEST DUP5 ADD SWAP2 POP POP SWAP3 SWAP2 POP POP JUMP JUMPDEST PUSH2 0x52C DUP2 PUSH2 0x1EA JUMP JUMPDEST DUP3 MSTORE POP POP JUMP JUMPDEST PUSH0 PUSH1 0x80 DUP3 ADD SWAP1 POP DUP2 DUP2 SUB PUSH0 DUP4 ADD MSTORE PUSH2 0x54A DUP2 DUP8 PUSH2 0x4EB JUMP JUMPDEST SWAP1 POP PUSH2 0x559 PUSH1 0x20 DUP4 ADD DUP7 PUSH2 0x523 JUMP JUMPDEST DUP2 DUP2 SUB PUSH1 0x40 DUP4 ADD MSTORE PUSH2 0x56B DUP2 DUP6 PUSH2 0x4EB JUMP JUMPDEST SWAP1 POP DUP2 DUP2 SUB PUSH1 0x60 DUP4 ADD MSTORE PUSH2 0x57F DUP2 DUP5 PUSH2 0x4EB JUMP JUMPDEST SWAP1 POP SWAP6 SWAP5 POP POP POP POP POP JUMP JUMPDEST PUSH0 DUP2 SWAP1 POP SWAP3 SWAP2 POP POP JUMP JUMPDEST PUSH0 PUSH2 0x59E DUP3 PUSH2 0x4C3 JUMP JUMPDEST PUSH2 0x5A8 DUP2 DUP6 PUSH2 0x58A JUMP JUMPDEST SWAP4 POP PUSH2 0x5B8 DUP2 DUP6 PUSH1 0x20 DUP7 ADD PUSH2 0x4DD JUMP JUMPDEST DUP1 DUP5 ADD SWAP2 POP POP SWAP3 SWAP2 POP POP JUMP JUMPDEST PUSH0 PUSH2 0x5CF DUP3 DUP5 PUSH2 0x594 JUMP JUMPDEST SWAP2 POP DUP2 SWAP1 POP SWAP3 SWAP2 POP POP JUMP JUMPDEST PUSH0 PUSH1 0xA0 DUP3 ADD SWAP1 POP DUP2 DUP2 SUB PUSH0 DUP4 ADD MSTORE PUSH2 0x5F2 DUP2 DUP9 PUSH2 0x4EB JUMP JUMPDEST SWAP1 POP PUSH2 0x601 PUSH1 0x20 DUP4 ADD DUP8 PUSH2 0x523 JUMP JUMPDEST PUSH2 0x60E PUSH1 0x40 DUP4 ADD DUP7 PUSH2 0x278 JUMP JUMPDEST DUP2 DUP2 SUB PUSH1 0x60 DUP4 ADD MSTORE PUSH2 0x620 DUP2 DUP6 PUSH2 0x4EB JUMP JUMPDEST SWAP1 POP DUP2 DUP2 SUB PUSH1 0x80 DUP4 ADD MSTORE PUSH2 0x634 DUP2 DUP5 PUSH2 0x4EB JUMP JUMPDEST SWAP1 POP SWAP7 SWAP6 POP POP POP POP POP POP JUMP INVALID PUSH1 0x80 PUSH1 0x40 MSTORE CALLVALUE DUP1 ISZERO PUSH2 0xF JUMPI PUSH0 DUP1 REVERT JUMPDEST POP PUSH1 0x40 MLOAD PUSH2 0xC93 CODESIZE SUB DUP1 PUSH2 0xC93 DUP4 CODECOPY DUP2 DUP2 ADD PUSH1 0x40 MSTORE DUP2 ADD SWAP1 PUSH2 0x31 SWAP2 SWAP1 PUSH2 0x230 JUMP JUMPDEST DUP4 PUSH0 SWAP1 DUP2 PUSH2 0x3F SWAP2 SWAP1 PUSH2 0x4EC JUMP JUMPDEST POP DUP3 PUSH1 0x1 DUP2 SWAP1 SSTORE POP DUP2 PUSH1 0x3 SWAP1 DUP2 PUSH2 0x56 SWAP2 SWAP1 PUSH2 0x4EC JUMP JUMPDEST POP DUP1 PUSH1 0x4 SWAP1 DUP2 PUSH2 0x66 SWAP2 SWAP1 PUSH2 0x4EC JUMP JUMPDEST POP CALLER PUSH1 0x5 PUSH0 PUSH2 0x100 EXP DUP2 SLOAD DUP2 PUSH20 0xFFFFFFFFFFFFFFFFFFFFFFFFFFFFFFFFFFFFFFFF MUL NOT AND SWAP1 DUP4 PUSH20 0xFFFFFFFFFFFFFFFFFFFFFFFFFFFFFFFFFFFFFFFF AND MUL OR SWAP1 SSTORE POP POP POP POP POP PUSH2 0x5BB JUMP JUMPDEST PUSH0 PUSH1 0x40 MLOAD SWAP1 POP SWAP1 JUMP JUMPDEST PUSH0 DUP1 REVERT JUMPDEST PUSH0 DUP1 REVERT JUMPDEST PUSH0 DUP1 REVERT JUMPDEST PUSH0 DUP1 REVERT JUMPDEST PUSH0 PUSH1 0x1F NOT PUSH1 0x1F DUP4 ADD AND SWAP1 POP SWAP2 SWAP1 POP JUMP JUMPDEST PUSH32 0x4E487B7100000000000000000000000000000000000000000000000000000000 PUSH0 MSTORE PUSH1 0x41 PUSH1 0x4 MSTORE PUSH1 0x24 PUSH0 REVERT JUMPDEST PUSH2 0x10F DUP3 PUSH2 0xC9 JUMP JUMPDEST DUP2 ADD DUP2 DUP2 LT PUSH8 0xFFFFFFFFFFFFFFFF DUP3 GT OR ISZERO PUSH2 0x12E JUMPI PUSH2 0x12D PUSH2 0xD9 JUMP JUMPDEST JUMPDEST DUP1 PUSH1 0x40 MSTORE POP POP POP JUMP JUMPDEST PUSH0 PUSH2 0x140 PUSH2 0xB0 JUMP JUMPDEST SWAP1 POP PUSH2 0x14C DUP3 DUP3 PUSH2 0x106 JUMP JUMPDEST SWAP2 SWAP1 POP JUMP JUMPDEST PUSH0 PUSH8 0xFFFFFFFFFFFFFFFF DUP3 GT ISZERO PUSH2 0x16B JUMPI PUSH2 0x16A PUSH2 0xD9 JUMP JUMPDEST JUMPDEST PUSH2 0x174 DUP3 PUSH2 0xC9 JUMP JUMPDEST SWAP1 POP PUSH1 0x20 DUP2 ADD SWAP1 POP SWAP2 SWAP1 POP JUMP JUMPDEST DUP3 DUP2 DUP4 MCOPY PUSH0 DUP4 DUP4 ADD MSTORE POP POP POP JUMP JUMPDEST PUSH0 PUSH2 0x1A1 PUSH2 0x19C DUP5 PUSH2 0x151 JUMP JUMPDEST PUSH2 0x137 JUMP JUMPDEST SWAP1 POP DUP3 DUP2 MSTORE PUSH1 0x20 DUP2 ADD DUP5 DUP5 DUP5 ADD GT ISZERO PUSH2 0x1BD JUMPI PUSH2 0x1BC PUSH2 0xC5 JUMP JUMPDEST JUMPDEST PUSH2 0x1C8 DUP5 DUP3 DUP6 PUSH2 0x181 JUMP JUMPDEST POP SWAP4 SWAP3 POP POP POP JUMP JUMPDEST PUSH0 DUP3 PUSH1 0x1F DUP4 ADD SLT PUSH2 0x1E4 JUMPI PUSH2 0x1E3 PUSH2 0xC1 JUMP JUMPDEST JUMPDEST DUP2 MLOAD PUSH2 0x1F4 DUP5 DUP3 PUSH1 0x20 DUP7 ADD PUSH2 0x18F JUMP JUMPDEST SWAP2 POP POP SWAP3 SWAP2 POP POP JUMP JUMPDEST PUSH0 DUP2 SWAP1 POP SWAP2 SWAP1 POP JUMP JUMPDEST PUSH2 0x20F DUP2 PUSH2 0x1FD JUMP JUMPDEST DUP2 EQ PUSH2 0x219 JUMPI PUSH0 DUP1 REVERT JUMPDEST POP JUMP JUMPDEST PUSH0 DUP2 MLOAD SWAP1 POP PUSH2 0x22A DUP2 PUSH2 0x206 JUMP JUMPDEST SWAP3 SWAP2 POP POP JUMP JUMPDEST PUSH0 DUP1 PUSH0 DUP1 PUSH1 0x80 DUP6 DUP8 SUB SLT ISZERO PUSH2 0x248 JUMPI PUSH2 0x247 PUSH2 0xB9 JUMP JUMPDEST JUMPDEST PUSH0 DUP6 ADD MLOAD PUSH8 0xFFFFFFFFFFFFFFFF DUP2 GT ISZERO PUSH2 0x265 JUMPI PUSH2 0x264 PUSH2 0xBD JUMP JUMPDEST JUMPDEST PUSH2 0x271 DUP8 DUP3 DUP9 ADD PUSH2 0x1D0 JUMP JUMPDEST SWAP5 POP POP PUSH1 0x20 PUSH2 0x282 DUP8 DUP3 DUP9 ADD PUSH2 0x21C JUMP JUMPDEST SWAP4 POP POP PUSH1 0x40 DUP6 ADD MLOAD PUSH8 0xFFFFFFFFFFFFFFFF DUP2 GT ISZERO PUSH2 0x2A3 JUMPI PUSH2 0x2A2 PUSH2 0xBD JUMP JUMPDEST JUMPDEST PUSH2 0x2AF DUP8 DUP3 DUP9 ADD PUSH2 0x1D0 JUMP JUMPDEST SWAP3 POP POP PUSH1 0x60 DUP6 ADD MLOAD PUSH8 0xFFFFFFFFFFFFFFFF DUP2 GT ISZERO PUSH2 0x2D0 JUMPI PUSH2 0x2CF PUSH2 0xBD JUMP JUMPDEST JUMPDEST PUSH2 0x2DC DUP8 DUP3 DUP9 ADD PUSH2 0x1D0 JUMP JUMPDEST SWAP2 POP POP SWAP3 SWAP6 SWAP2 SWAP5 POP SWAP3 POP JUMP JUMPDEST PUSH0 DUP2 MLOAD SWAP1 POP SWAP2 SWAP1 POP JUMP JUMPDEST PUSH32 0x4E487B7100000000000000000000000000000000000000000000000000000000 PUSH0 MSTORE PUSH1 0x22 PUSH1 0x4 MSTORE PUSH1 0x24 PUSH0 REVERT JUMPDEST PUSH0 PUSH1 0x2 DUP3 DIV SWAP1 POP PUSH1 0x1 DUP3 AND DUP1 PUSH2 0x336 JUMPI PUSH1 0x7F DUP3 AND SWAP2 POP JUMPDEST PUSH1 0x20 DUP3 LT DUP2 SUB PUSH2 0x349 JUMPI PUSH2 0x348 PUSH2 0x2F2 JUMP JUMPDEST JUMPDEST POP SWAP2 SWAP1 POP JUMP JUMPDEST PUSH0 DUP2 SWAP1 POP DUP2 PUSH0 MSTORE PUSH1 0x20 PUSH0 KECCAK256 SWAP1 POP SWAP2 SWAP1 POP JUMP JUMPDEST PUSH0 PUSH1 0x20 PUSH1 0x1F DUP4 ADD DIV SWAP1 POP SWAP2 SWAP1 POP JUMP JUMPDEST PUSH0 DUP3 DUP3 SHL SWAP1 POP SWAP3 SWAP2 POP POP JUMP JUMPDEST PUSH0 PUSH1 0x8 DUP4 MUL PUSH2 0x3AB PUSH32 0xFFFFFFFFFFFFFFFFFFFFFFFFFFFFFFFFFFFFFFFFFFFFFFFFFFFFFFFFFFFFFFFF DUP3 PUSH2 0x370 JUMP JUMPDEST PUSH2 0x3B5 DUP7 DUP4 PUSH2 0x370 JUMP JUMPDEST SWAP6 POP DUP1 NOT DUP5 AND SWAP4 POP DUP1 DUP7 AND DUP5 OR SWAP3 POP POP POP SWAP4 SWAP3 POP POP POP JUMP JUMPDEST PUSH0 DUP2 SWAP1 POP SWAP2 SWAP1 POP JUMP JUMPDEST PUSH0 PUSH2 0x3F0 PUSH2 0x3EB PUSH2 0x3E6 DUP5 PUSH2 0x1FD JUMP JUMPDEST PUSH2 0x3CD JUMP JUMPDEST PUSH2 0x1FD JUMP JUMPDEST SWAP1 POP SWAP2 SWAP1 POP JUMP JUMPDEST PUSH0 DUP2 SWAP1 POP SWAP2 SWAP1 POP JUMP JUMPDEST PUSH2 0x409 DUP4 PUSH2 0x3D6 JUMP JUMPDEST PUSH2 0x41D PUSH2 0x415 DUP3 PUSH2 0x3F7 JUMP JUMPDEST DUP5 DUP5 SLOAD PUSH2 0x37C JUMP JUMPDEST DUP3 SSTORE POP POP POP POP JUMP JUMPDEST PUSH0 SWAP1 JUMP JUMPDEST PUSH2 0x431 PUSH2 0x425 JUMP JUMPDEST PUSH2 0x43C DUP2 DUP5 DUP5 PUSH2 0x400 JUMP JUMPDEST POP POP POP JUMP JUMPDEST JUMPDEST DUP2 DUP2 LT ISZERO PUSH2 0x45F JUMPI PUSH2 0x454 PUSH0 DUP3 PUSH2 0x429 JUMP JUMPDEST PUSH1 0x1 DUP2 ADD SWAP1 POP PUSH2 0x442 JUMP JUMPDEST POP POP JUMP JUMPDEST PUSH1 0x1F DUP3 GT ISZERO PUSH2 0x4A4 JUMPI PUSH2 0x475 DUP2 PUSH2 0x34F JUMP JUMPDEST PUSH2 0x47E DUP5 PUSH2 0x361 JUMP JUMPDEST DUP2 ADD PUSH1 0x20 DUP6 LT ISZERO PUSH2 0x48D JUMPI DUP2 SWAP1 POP JUMPDEST PUSH2 0x4A1 PUSH2 0x499 DUP6 PUSH2 0x361 JUMP JUMPDEST DUP4 ADD DUP3 PUSH2 0x441 JUMP JUMPDEST POP POP JUMPDEST POP POP POP JUMP JUMPDEST PUSH0 DUP3 DUP3 SHR SWAP1 POP SWAP3 SWAP2 POP POP JUMP JUMPDEST PUSH0 PUSH2 0x4C4 PUSH0 NOT DUP5 PUSH1 0x8 MUL PUSH2 0x4A9 JUMP JUMPDEST NOT DUP1 DUP4 AND SWAP2 POP POP SWAP3 SWAP2 POP POP JUMP JUMPDEST PUSH0 PUSH2 0x4DC DUP4 DUP4 PUSH2 0x4B5 JUMP JUMPDEST SWAP2 POP DUP3 PUSH1 0x2 MUL DUP3 OR SWAP1 POP SWAP3 SWAP2 POP POP JUMP JUMPDEST PUSH2 0x4F5 DUP3 PUSH2 0x2E8 JUMP JUMPDEST PUSH8 0xFFFFFFFFFFFFFFFF DUP2 GT ISZERO PUSH2 0x50E JUMPI PUSH2 0x50D PUSH2 0xD9 JUMP JUMPDEST JUMPDEST PUSH2 0x518 DUP3 SLOAD PUSH2 0x31F JUMP JUMPDEST PUSH2 0x523 DUP3 DUP3 DUP6 PUSH2 0x463 JUMP JUMPDEST PUSH0 PUSH1 0x20 SWAP1 POP PUSH1 0x1F DUP4 GT PUSH1 0x1 DUP2 EQ PUSH2 0x554 JUMPI PUSH0 DUP5 ISZERO PUSH2 0x542 JUMPI DUP3 DUP8 ADD MLOAD SWAP1 POP JUMPDEST PUSH2 0x54C DUP6 DUP3 PUSH2 0x4D1 JUMP JUMPDEST DUP7 SSTORE POP PUSH2 0x5B3 JUMP JUMPDEST PUSH1 0x1F NOT DUP5 AND PUSH2 0x562 DUP7 PUSH2 0x34F JUMP JUMPDEST PUSH0 JUMPDEST DUP3 DUP2 LT ISZERO PUSH2 0x589 JUMPI DUP5 DUP10 ADD MLOAD DUP3 SSTORE PUSH1 0x1 DUP3 ADD SWAP2 POP PUSH1 0x20 DUP6 ADD SWAP5 POP PUSH1 0x20 DUP2 ADD SWAP1 POP PUSH2 0x564 JUMP JUMPDEST DUP7 DUP4 LT ISZERO PUSH2 0x5A6 JUMPI DUP5 DUP10 ADD MLOAD PUSH2 0x5A2 PUSH1 0x1F DUP10 AND DUP3 PUSH2 0x4B5 JUMP JUMPDEST DUP4 SSTORE POP JUMPDEST PUSH1 0x1 PUSH1 0x2 DUP9 MUL ADD DUP9 SSTORE POP POP POP JUMPDEST POP POP POP POP POP POP JUMP JUMPDEST PUSH2 0x6CB DUP1 PUSH2 0x5C8 PUSH0 CODECOPY PUSH0 RETURN INVALID PUSH1 0x80 PUSH1 0x40 MSTORE PUSH1 0x4 CALLDATASIZE LT PUSH2 0x6F JUMPI PUSH0 CALLDATALOAD PUSH1 0xE0 SHR DUP1 PUSH4 0xB4A99A4E GT PUSH2 0x4D JUMPI DUP1 PUSH4 0xB4A99A4E EQ PUSH2 0xD1 JUMPI DUP1 PUSH4 0xB529EF96 EQ PUSH2 0xFB JUMPI DUP1 PUSH4 0xCDFF42BF EQ PUSH2 0x125 JUMPI DUP1 PUSH4 0xF3CCAAC0 EQ PUSH2 0x14F JUMPI PUSH2 0x6F JUMP JUMPDEST DUP1 PUSH4 0x4A79D50C EQ PUSH2 0x73 JUMPI DUP1 PUSH4 0x965044D5 EQ PUSH2 0x9D JUMPI DUP1 PUSH4 0x9D7AFDF3 EQ PUSH2 0xA7 JUMPI JUMPDEST PUSH0 DUP1 REVERT JUMPDEST CALLVALUE DUP1 ISZERO PUSH2 0x7E JUMPI PUSH0 DUP1 REVERT JUMPDEST POP PUSH2 0x87 PUSH2 0x179 JUMP JUMPDEST PUSH1 0x40 MLOAD PUSH2 0x94 SWAP2 SWAP1 PUSH2 0x4C7 JUMP JUMPDEST PUSH1 0x40 MLOAD DUP1 SWAP2 SUB SWAP1 RETURN JUMPDEST PUSH2 0xA5 PUSH2 0x204 JUMP JUMPDEST STOP JUMPDEST CALLVALUE DUP1 ISZERO PUSH2 0xB2 JUMPI PUSH0 DUP1 REVERT JUMPDEST POP PUSH2 0xBB PUSH2 0x30E JUMP JUMPDEST PUSH1 0x40 MLOAD PUSH2 0xC8 SWAP2 SWAP1 PUSH2 0x4C7 JUMP JUMPDEST PUSH1 0x40 MLOAD DUP1 SWAP2 SUB SWAP1 RETURN JUMPDEST CALLVALUE DUP1 ISZERO PUSH2 0xDC JUMPI PUSH0 DUP1 REVERT JUMPDEST POP PUSH2 0xE5 PUSH2 0x39A JUMP JUMPDEST PUSH1 0x40 MLOAD PUSH2 0xF2 SWAP2 SWAP1 PUSH2 0x526 JUMP JUMPDEST PUSH1 0x40 MLOAD DUP1 SWAP2 SUB SWAP1 RETURN JUMPDEST CALLVALUE DUP1 ISZERO PUSH2 0x106 JUMPI PUSH0 DUP1 REVERT JUMPDEST POP PUSH2 0x10F PUSH2 0x3BF JUMP JUMPDEST PUSH1 0x40 MLOAD PUSH2 0x11C SWAP2 SWAP1 PUSH2 0x557 JUMP JUMPDEST PUSH1 0x40 MLOAD DUP1 SWAP2 SUB SWAP1 RETURN JUMPDEST CALLVALUE DUP1 ISZERO PUSH2 0x130 JUMPI PUSH0 DUP1 REVERT JUMPDEST POP PUSH2 0x139 PUSH2 0x3C5 JUMP JUMPDEST PUSH1 0x40 MLOAD PUSH2 0x146 SWAP2 SWAP1 PUSH2 0x557 JUMP JUMPDEST PUSH1 0x40 MLOAD DUP1 SWAP2 SUB SWAP1 RETURN JUMPDEST CALLVALUE DUP1 ISZERO PUSH2 0x15A JUMPI PUSH0 DUP1 REVERT JUMPDEST POP PUSH2 0x163 PUSH2 0x3CB JUMP JUMPDEST PUSH1 0x40 MLOAD PUSH2 0x170 SWAP2 SWAP1 PUSH2 0x4C7 JUMP JUMPDEST PUSH1 0x40 MLOAD DUP1 SWAP2 SUB SWAP1 RETURN JUMPDEST PUSH0 DUP1 SLOAD PUSH2 0x185 SWAP1 PUSH2 0x59D JUMP JUMPDEST DUP1 PUSH1 0x1F ADD PUSH1 0x20 DUP1 SWAP2 DIV MUL PUSH1 0x20 ADD PUSH1 0x40 MLOAD SWAP1 DUP2 ADD PUSH1 0x40 MSTORE DUP1 SWAP3 SWAP2 SWAP1 DUP2 DUP2 MSTORE PUSH1 0x20 ADD DUP3 DUP1 SLOAD PUSH2 0x1B1 SWAP1 PUSH2 0x59D JUMP JUMPDEST DUP1 ISZERO PUSH2 0x1FC JUMPI DUP1 PUSH1 0x1F LT PUSH2 0x1D3 JUMPI PUSH2 0x100 DUP1 DUP4 SLOAD DIV MUL DUP4 MSTORE SWAP2 PUSH1 0x20 ADD SWAP2 PUSH2 0x1FC JUMP JUMPDEST DUP3 ADD SWAP2 SWAP1 PUSH0 MSTORE PUSH1 0x20 PUSH0 KECCAK256 SWAP1 JUMPDEST DUP2 SLOAD DUP2 MSTORE SWAP1 PUSH1 0x1 ADD SWAP1 PUSH1 0x20 ADD DUP1 DUP4 GT PUSH2 0x1DF JUMPI DUP3 SWAP1 SUB PUSH1 0x1F AND DUP3 ADD SWAP2 JUMPDEST POP POP POP POP POP DUP2 JUMP JUMPDEST PUSH1 0x2 SLOAD PUSH1 0x1 SLOAD GT PUSH2 0x24A JUMPI PUSH1 0x40 MLOAD PUSH32 0x8C379A000000000000000000000000000000000000000000000000000000000 DUP2 MSTORE PUSH1 0x4 ADD PUSH2 0x241 SWAP1 PUSH2 0x617 JUMP JUMPDEST PUSH1 0x40 MLOAD DUP1 SWAP2 SUB SWAP1 REVERT JUMPDEST PUSH1 0x5 PUSH0 SWAP1 SLOAD SWAP1 PUSH2 0x100 EXP SWAP1 DIV PUSH20 0xFFFFFFFFFFFFFFFFFFFFFFFFFFFFFFFFFFFFFFFF AND PUSH20 0xFFFFFFFFFFFFFFFFFFFFFFFFFFFFFFFFFFFFFFFF AND PUSH2 0x8FC CALLVALUE SWAP1 DUP2 ISZERO MUL SWAP1 PUSH1 0x40 MLOAD PUSH0 PUSH1 0x40 MLOAD DUP1 DUP4 SUB DUP2 DUP6 DUP9 DUP9 CALL SWAP4 POP POP POP POP ISZERO DUP1 ISZERO PUSH2 0x2AE JUMPI RETURNDATASIZE PUSH0 DUP1 RETURNDATACOPY RETURNDATASIZE PUSH0 REVERT JUMPDEST POP CALLVALUE PUSH1 0x2 PUSH0 DUP3 DUP3 SLOAD PUSH2 0x2C0 SWAP2 SWAP1 PUSH2 0x662 JUMP JUMPDEST SWAP3 POP POP DUP2 SWAP1 SSTORE POP TIMESTAMP CALLVALUE CALLER PUSH20 0xFFFFFFFFFFFFFFFFFFFFFFFFFFFFFFFFFFFFFFFF AND PUSH32 0xE6ADD99D06D9AD7FC456E746AA162EED6211C5002EF2DACDD67B8D2016822FBA PUSH1 0x40 MLOAD PUSH1 0x40 MLOAD DUP1 SWAP2 SUB SWAP1 LOG4 JUMP JUMPDEST PUSH1 0x4 DUP1 SLOAD PUSH2 0x31B SWAP1 PUSH2 0x59D JUMP JUMPDEST DUP1 PUSH1 0x1F ADD PUSH1 0x20 DUP1 SWAP2 DIV MUL PUSH1 0x20 ADD PUSH1 0x40 MLOAD SWAP1 DUP2 ADD PUSH1 0x40 MSTORE DUP1 SWAP3 SWAP2 SWAP1 DUP2 DUP2 MSTORE PUSH1 0x20 ADD DUP3 DUP1 SLOAD PUSH2 0x347 SWAP1 PUSH2 0x59D JUMP JUMPDEST DUP1 ISZERO PUSH2 0x392 JUMPI DUP1 PUSH1 0x1F LT PUSH2 0x369 JUMPI PUSH2 0x100 DUP1 DUP4 SLOAD DIV MUL DUP4 MSTORE SWAP2 PUSH1 0x20 ADD SWAP2 PUSH2 0x392 JUMP JUMPDEST DUP3 ADD SWAP2 SWAP1 PUSH0 MSTORE PUSH1 0x20 PUSH0 KECCAK256 SWAP1 JUMPDEST DUP2 SLOAD DUP2 MSTORE SWAP1 PUSH1 0x1 ADD SWAP1 PUSH1 0x20 ADD DUP1 DUP4 GT PUSH2 0x375 JUMPI DUP3 SWAP1 SUB PUSH1 0x1F AND DUP3 ADD SWAP2 JUMPDEST POP POP POP POP POP DUP2 JUMP JUMPDEST PUSH1 0x5 PUSH0 SWAP1 SLOAD SWAP1 PUSH2 0x100 EXP SWAP1 DIV PUSH20 0xFFFFFFFFFFFFFFFFFFFFFFFFFFFFFFFFFFFFFFFF AND DUP2 JUMP JUMPDEST PUSH1 0x1 SLOAD DUP2 JUMP JUMPDEST PUSH1 0x2 SLOAD DUP2 JUMP JUMPDEST PUSH1 0x3 DUP1 SLOAD PUSH2 0x3D8 SWAP1 PUSH2 0x59D JUMP JUMPDEST DUP1 PUSH1 0x1F ADD PUSH1 0x20 DUP1 SWAP2 DIV MUL PUSH1 0x20 ADD PUSH1 0x40 MLOAD SWAP1 DUP2 ADD PUSH1 0x40 MSTORE DUP1 SWAP3 SWAP2 SWAP1 DUP2 DUP2 MSTORE PUSH1 0x20 ADD DUP3 DUP1 SLOAD PUSH2 0x404 SWAP1 PUSH2 0x59D JUMP JUMPDEST DUP1 ISZERO PUSH2 0x44F JUMPI DUP1 PUSH1 0x1F LT PUSH2 0x426 JUMPI PUSH2 0x100 DUP1 DUP4 SLOAD DIV MUL DUP4 MSTORE SWAP2 PUSH1 0x20 ADD SWAP2 PUSH2 0x44F JUMP JUMPDEST DUP3 ADD SWAP2 SWAP1 PUSH0 MSTORE PUSH1 0x20 PUSH0 KECCAK256 SWAP1 JUMPDEST DUP2 SLOAD DUP2 MSTORE SWAP1 PUSH1 0x1 ADD SWAP1 PUSH1 0x20 ADD DUP1 DUP4 GT PUSH2 0x432 JUMPI DUP3 SWAP1 SUB PUSH1 0x1F AND DUP3 ADD SWAP2 JUMPDEST POP POP POP POP POP DUP2 JUMP JUMPDEST PUSH0 DUP2 MLOAD SWAP1 POP SWAP2 SWAP1 POP JUMP JUMPDEST PUSH0 DUP3 DUP3 MSTORE PUSH1 0x20 DUP3 ADD SWAP1 POP SWAP3 SWAP2 POP POP JUMP JUMPDEST DUP3 DUP2 DUP4 MCOPY PUSH0 DUP4 DUP4 ADD MSTORE POP POP POP JUMP JUMPDEST PUSH0 PUSH1 0x1F NOT PUSH1 0x1F DUP4 ADD AND SWAP1 POP SWAP2 SWAP1 POP JUMP JUMPDEST PUSH0 PUSH2 0x499 DUP3 PUSH2 0x457 JUMP JUMPDEST PUSH2 0x4A3 DUP2 DUP6 PUSH2 0x461 JUMP JUMPDEST SWAP4 POP PUSH2 0x4B3 DUP2 DUP6 PUSH1 0x20 DUP7 ADD PUSH2 0x471 JUMP JUMPDEST PUSH2 0x4BC DUP2 PUSH2 0x47F JUMP JUMPDEST DUP5 ADD SWAP2 POP POP SWAP3 SWAP2 POP POP JUMP JUMPDEST PUSH0 PUSH1 0x20 DUP3 ADD SWAP1 POP DUP2 DUP2 SUB PUSH0 DUP4 ADD MSTORE PUSH2 0x4DF DUP2 DUP5 PUSH2 0x48F JUMP JUMPDEST SWAP1 POP SWAP3 SWAP2 POP POP JUMP JUMPDEST PUSH0 PUSH20 0xFFFFFFFFFFFFFFFFFFFFFFFFFFFFFFFFFFFFFFFF DUP3 AND SWAP1 POP SWAP2 SWAP1 POP JUMP JUMPDEST PUSH0 PUSH2 0x510 DUP3 PUSH2 0x4E7 JUMP JUMPDEST SWAP1 POP SWAP2 SWAP1 POP JUMP JUMPDEST PUSH2 0x520 DUP2 PUSH2 0x506 JUMP JUMPDEST DUP3 MSTORE POP POP JUMP JUMPDEST PUSH0 PUSH1 0x20 DUP3 ADD SWAP1 POP PUSH2 0x539 PUSH0 DUP4 ADD DUP5 PUSH2 0x517 JUMP JUMPDEST SWAP3 SWAP2 POP POP JUMP JUMPDEST PUSH0 DUP2 SWAP1 POP SWAP2 SWAP1 POP JUMP JUMPDEST PUSH2 0x551 DUP2 PUSH2 0x53F JUMP JUMPDEST DUP3 MSTORE POP POP JUMP JUMPDEST PUSH0 PUSH1 0x20 DUP3 ADD SWAP1 POP PUSH2 0x56A PUSH0 DUP4 ADD DUP5 PUSH2 0x548 JUMP JUMPDEST SWAP3 SWAP2 POP POP JUMP JUMPDEST PUSH32 0x4E487B7100000000000000000000000000000000000000000000000000000000 PUSH0 MSTORE PUSH1 0x22 PUSH1 0x4 MSTORE PUSH1 0x24 PUSH0 REVERT JUMPDEST PUSH0 PUSH1 0x2 DUP3 DIV SWAP1 POP PUSH1 0x1 DUP3 AND DUP1 PUSH2 0x5B4 JUMPI PUSH1 0x7F DUP3 AND SWAP2 POP JUMPDEST PUSH1 0x20 DUP3 LT DUP2 SUB PUSH2 0x5C7 JUMPI PUSH2 0x5C6 PUSH2 0x570 JUMP JUMPDEST JUMPDEST POP SWAP2 SWAP1 POP JUMP JUMPDEST PUSH32 0x546F74616C416D6F756E7420686173206265656E20636F6C6C65637465640000 PUSH0 DUP3 ADD MSTORE POP JUMP JUMPDEST PUSH0 PUSH2 0x601 PUSH1 0x1E DUP4 PUSH2 0x461 JUMP JUMPDEST SWAP2 POP PUSH2 0x60C DUP3 PUSH2 0x5CD JUMP JUMPDEST PUSH1 0x20 DUP3 ADD SWAP1 POP SWAP2 SWAP1 POP JUMP JUMPDEST PUSH0 PUSH1 0x20 DUP3 ADD SWAP1 POP DUP2 DUP2 SUB PUSH0 DUP4 ADD MSTORE PUSH2 0x62E DUP2 PUSH2 0x5F5 JUMP JUMPDEST SWAP1 POP SWAP2 SWAP1 POP JUMP JUMPDEST PUSH32 0x4E487B7100000000000000000000000000000000000000000000000000000000 PUSH0 MSTORE PUSH1 0x11 PUSH1 0x4 MSTORE PUSH1 0x24 PUSH0 REVERT JUMPDEST PUSH0 PUSH2 0x66C DUP3 PUSH2 0x53F JUMP JUMPDEST SWAP2 POP PUSH2 0x677 DUP4 PUSH2 0x53F JUMP JUMPDEST SWAP3 POP DUP3 DUP3 ADD SWAP1 POP DUP1 DUP3 GT ISZERO PUSH2 0x68F JUMPI PUSH2 0x68E PUSH2 0x635 JUMP JUMPDEST JUMPDEST SWAP3 SWAP2 POP POP JUMP INVALID LOG2 PUSH5 0x6970667358 0x22 SLT KECCAK256 0xFC 0x4C 0x4F DUP13 0xA7 0xAE CALLDATACOPY 0xD5 SHL PUSH16 0xB1BC265D803B70A0AACCCF5A8CDCD7B0 PUSH4 0xF4FB69C5 0xB2 PUSH5 0x736F6C6343 STOP ADDMOD BYTE STOP CALLER LOG2 PUSH5 0x6970667358 0x22 SLT KECCAK256 RETURN 0xC2 KECCAK256 0xDC PUSH17 0xBF5E4D50AC12542635C4008C35E5B506F8 PC OR GASPRICE ISZERO 0xEE MOD 0xC9 EXTCODECOPY 0x2C PUSH11 0x64736F6C634300081A0033 "
				},
				"gasEstimates": {
					"creation": {
						"codeDepositCost": "974600",
						"executionCost": "1012",
						"totalCost": "975612"
					},
					"external": {
						"CreateCampaign(string,uint256,string,string,string)": "infinite",
						"depolyedCapmaigns(uint256)": "4921"
					}
				},
				"methodIdentifiers": {
					"CreateCampaign(string,uint256,string,string,string)": "30b99a25",
					"depolyedCapmaigns(uint256)": "25e1db4d"
				}
			},
			"storageLayout": {
				"storage": [
					{
						"astId": 4,
						"contract": "contracts/campaign.sol:CampaignsData",
						"label": "depolyedCapmaigns",
						"offset": 0,
						"slot": "0",
						"type": "t_array(t_address)dyn_storage"
					}
				],
				"types": {
					"t_address": {
						"encoding": "inplace",
						"label": "address",
						"numberOfBytes": "20"
					},
					"t_array(t_address)dyn_storage": {
						"base": "t_address",
						"encoding": "dynamic_array",
						"label": "address[]",
						"numberOfBytes": "32"
					}
				}
			},
			"userdoc": {
				"kind": "user",
				"methods": {},
				"version": 1
			}
		}
	}
}